:400000000040002011000000D56D0000D56D000080B500AF024A034B1B68136006F00CFFBC760040FA46004010B5054C237833B9044B13B10448AFF300800123237010BDC2
:4000400018C2FF1F00000000B0A40000084B10B51BB108490848AFF300800848036803B910BD074B002BFBD0BDE81040184700BF000000001CC2FF1FB0A40000C8C0FF1FF8
:400080000000000080B500AF064B1B680133054A1360054B01221A7008F00EF808F0B2FC00BF80BD04C6FF1F34C2FF1F80B500AF07F068FB03461A46044B1A70044B0122C7
:4000C0001A7008F045FC00BF80BD00BF35C2FF1F36C2FF1F80B483B000AF164B1B78002B16D10023FB7102E0FB790133FB71FB79114AD25C114B1B789A42F5D9FB79012B80
:4001000001D80223FB71FB79013BDAB20C4B1A700C4B00221A600A4B1B781A460A4B33F812301A46094B1A6000BF0C37BD4680BC704700BF81C3FF1FE0C0FF1F64C3FF1FF1
:4001400041C2FF1F44C2FF1F14C1FF1F8CC2FF1F80B582B000AF244809F0A2FD0346BB710023FB7138E0BB791A1FFB7913441E4AD35C303B092B2BD801A252F823F000BF75
:40018000A9010000B3010000BD010000C7010000A9010000B3010000BD010000C7010000A9010000B3010000FB79104A5521D1540FE0FB790D4A5221D1540AE0FB790B4AAB
:4001C0004421D15405E0FB79084A4C21D15400E000BFFB790133FB71FB79032BC3D900BF0837BD4680BD00BFD8C0FF1F0CC3FF1F80B483B000AF0023FB7109E0FB79FA7932
:4002000001321B49895C1A4AD154FB790133FB71FB79022BF2D9174B1A78154BDA700123BB710023FB710CE0FB79114AD25CFB791149CB5C9A4201D00023BB71FB7901333A
:40024000FB71FB79032BEFD9BB79012B0BD10B4B1B7803F00103002B0CBF01230023DBB21A46064B1A7000BF0C37BD4680BC704710C3FF1F2CC7FF1F0CC3FF1F0AC3FF1FB5
:4002800080B500AF284B00221A70284B1B78012B09D1274B1B78002B05D1254B01221A70002008F015FC234B1B7803F01F03162B03D1214B06221A7034E01E4B1B7803F097
:4002C0001F031E2B03D11C4B01221A702AE0194B1B7803F01F031D2B03D1174B03221A7020E0144B1B7803F01F031B2B03D1124B05221A7016E00F4B1B7803F01F03172BFF
:4003000003D10D4B02221A700CE00A4B1B7803F01F030F2B03D1084B04221A7002E0064B00221A7000BF80BD36C2FF1FDDC2FF1FDEC2FF1F35C2FF1F6DC2FF1F80B500AF37
:40034000774B1B78013B0E2B00F2D98001A252F823F000BFC1030000B103000059040000A10300003B0400001D040000C304000091030000FF030000E1030000A5040000E6
:40038000D10300008704000069040000E10400000821012006F0CAFF624806F0FFFFBDE00821012006F0C2FF5F4806F0F7FFB5E00821012006F0BAFF5C4806F0EFFFADE011
:4003C0000821012006F0B2FF594806F0E7FFA5E00821012006F0AAFF564806F0DFFF9DE00821012006F0A2FF4E4806F0D7FF0821022006F09BFF4D4806F0D0FF8EE0082123
:40040000012006F093FF474806F0C8FF0821022006F08CFF464806F0C1FF7FE00821012006F084FF404806F0B9FF0821022006F07DFF3E4806F0B2FF70E00821012006F0E5
:4004400075FF394806F0AAFF0821022006F06EFF374806F0A3FF61E00821012006F066FF354806F09BFF59E00821012006F05EFF304806F093FF0821022006F057FF2B4850
:4004800006F08CFF4AE00821012006F04FFF294806F084FF0821022006F048FF244806F07DFF3BE00821012006F040FF1D4806F075FF0821022006F039FF1F4806F06EFF07
:4004C0002CE00821012006F031FF174806F066FF0821022006F02AFF174806F05FFF1DE00821012006F022FF124806F057FF0821022006F01BFF104806F050FF0EE0082196
:40050000012006F013FF0D4806F048FF0821022006F00CFF094806F041FF00BF00BF80BD19C7FF1FB4A40000BCA40000C4A40000CCA40000D4A40000DCA40000E4A4000064
:4005400098B500AF864B1B78012B40F00681854B1B78012B1DD10D2006F066FF012006F063FF814806F01AFF0F21002006F0DEFE7E2006F031FF0021032006F0D7FE7B482A
:4005800006F00CFF0021022006F0D0FE754B00221A700721032006F0C9FE754B1B781A467449754809F058FB734806F0F7FE0B21032006F0BBFE714B1B78002B03D170489C
:4005C00006F0ECFE0AE06D4B1B78022B03D16D4806F0E4FE02E06C4806F0E0FE0E21032006F0A4FE694B1B78012B08D0022B0AD0002B00D00BE0664806F0D0FE07E06548C6
:4006000006F0CCFE03E0644806F0C8FE00BF634B1B78002B1ED0614B1B78092B0BD80021022006F083FE5D4B1B781A465C49524809F012FB0AE00021022006F077FE574B6C
:400640001B781A4657494C4809F006FB4A4806F0A5FE0CE00021022006F068FE464A524B14460FCB84E80F00434806F097FE1121032006F05BFE4D4B1B78002B03D14C484F
:4006800006F08CFE02E04B4806F088FE0021012006F04CFE484B1B78002B52D1464B01221A70464B1B78082B52D801A252F823F0D506000051070000070700000F070000BD
:4006C0001B070000230700002B070000330700003B0700003A4B1B78002B02D0032B04D007E0384806F05AFE06E0374806F056FE02E0364806F052FE354B00221A70354B33
:4007000000221A7025E0344806F048FE21E0334806F044FEFFF712FE1BE0314806F03EFE17E0304806F03AFE13E02F4806F036FE0FE02E4806F032FE0BE02D4806F02EFEB2
:4007400007E02C4806F02AFE1B4B00221A7000E000BF0F21002006F0E9FD00BF98BD00BFCCC0FF1FCEC0FF1FECA4000004A5000041C2FF1F1CA5000058C2FF1FD3C0FF1FF6
:4007800020A5000024A5000028A5000094C2FF1F2CA5000030A5000034A50000F8C4FF1F38A500004CA5000060A50000D4C2FF1F70A5000074A5000015C3FF1FCDC0FF1FBB
:4007C000FBC2FF1F78A5000088A5000098A50000DDC2FF1FDEC2FF1FA8A50000B8A50000C8A50000D8A50000E8A50000F8A5000008A6000018A6000080B500AFAC4B1B7884
:40080000012B1DD1012006F00FFEAA4806F0C6FD0021012006F08AFDA74806F0BFFD0021022006F083FDA54806F0B8FD0021032006F07CFDA24806F0B1FD9D4B00221A7049
:40084000A04B1B78072B00F2308101A252F823F071080000B3080000F50800003709000079090000BB0900000B0A00004D0A00000F21032006F05AFD2D2006F0ADFD002154
:40088000012006F053FD2D2006F0A6FD0C21002006F04CFD2D2006F09FFD0021002006F045FD7E2006F098FD0021002006F03EFDFCE00021002006F039FD2D2006F08CFD57
:4008C0000021022006F032FD2D2006F085FD0C21012006F02BFD2D2006F07EFD0021012006F024FD7E2006F077FD0021012006F01DFDDBE00021012006F018FD2D2006F0A3
:400900006BFD0021032006F011FD2D2006F064FD0C21022006F00AFD2D2006F05DFD0021022006F003FD7E2006F056FD0021022006F0FCFCBAE00021022006F0F7FC2D2016
:4009400006F04AFD0C21002006F0F0FC2D2006F043FD0F21032006F0E9FC2D2006F03CFD0021032006F0E2FC7E2006F035FD0021032006F0DBFC99E00021032006F0D6FC6A
:400980002D2006F029FD0C21012006F0CFFC2D2006F022FD0021002006F0C8FC2D2006F01BFD0C21002006F0C1FC7E2006F014FD0C21002006F0BAFC78E00C21002006F0CE
:4009C000B5FC2D2006F008FD0F21032006F0AEFC2D2006F001FD0021012006F0A7FC2D2006F0FAFC0C21022006F0A0FC2D2006F0F3FC0C21012006F099FC7E2006F0ECFC4E
:400A00000C21012006F092FC50E00F21032006F08DFC2D2006F0E0FC0C21012006F086FC2D2006F0D9FC0021022006F07FFC2D2006F0D2FC0C21022006F078FC7E2006F0D3
:400A4000CBFC0C21022006F071FC2FE00C21012006F06CFC2D2006F0BFFC0021002006F065FC2D2006F0B8FC0021032006F05EFC2D2006F0B1FC0021022006F057FC2D2058
:400A800006F0AAFC0C21022006F050FC2D2006F0A3FC0F21032006F049FC7E2006F09CFC0F21032006F042FC00E000BF00BF80BDCEC0FF1F28A6000040A6000058A60000ED
:400AC00070A600003EC2FF1F80B500AF224B1B78012B16D1012006F0A7FC204806F05EFC0721022006F022FC1D4806F057FC0A21032006F01BFC1B4806F050FC164B0022CA
:400B00001A700021022006F011FC174B1B78002B03D1164806F042FC02E0154806F03EFC0821012006F002FC124B1B781A461249124809F091F8114806F030FC0721012067
:400B400006F0F4FB7E2006F047FC0721012006F0EDFB00BF80BD00BFCEC0FF1F88A6000098A60000A8A6000081C3FF1FB4A60000BCA6000064C3FF1FC4A6000058C2FF1F6C
:400B800080B500AF224B1B78012B16D1012006F04BFC204806F002FC0721022006F0C6FB1D4806F0FBFB0A21032006F0BFFB1B4806F0F4FB164B00221A700021022006F0A6
:400BC000B5FB174B1B78002B03D1164806F0E6FB02E0154806F0E2FB0721012006F0A6FB124B1B781A461249124809F035F8114806F0D4FB0521012006F098FB7E2006F07D
:400C0000EBFB0521012006F091FB00BF80BD00BFCEC0FF1FC8A6000098A60000A8A6000081C3FF1FB4A60000BCA6000041C2FF1F1CA5000058C2FF1F80B500AF7F4B1B782B
:400C4000012B1DD1012006F0EFFB7D4806F0A6FB0021012006F06AFB7A4806F09FFB0021022006F063FB784806F098FB0021032006F05CFB754806F091FB704B00221A70F7
:400C8000734B1B78052B00F2D58001A252F823F0A90C0000EB0C00001F0D0000530D0000950D0000E50D00000F21032006F03EFB2D2006F091FB0021012006F037FB2D2098
:400CC00006F08AFB0B21002006F030FB2D2006F083FB0021002006F029FB7E2006F07CFB0021002006F022FBA5E00021002006F01DFB2D2006F070FB0021022006F016FBC5
:400D00002D2006F069FB0021012006F00FFB7E2006F062FB0021012006F008FB8BE00021012006F003FB2D2006F056FB0021032006F0FCFA2D2006F04FFB0021022006F073
:400D4000F5FA7E2006F048FB0021022006F0EEFA71E00021022006F0E9FA2D2006F03CFB0B21002006F0E2FA2D2006F035FB0F21032006F0DBFA2D2006F02EFB0021032046
:400D800006F0D4FA7E2006F027FB0021032006F0CDFA50E00021002006F0C8FA2D2006F01BFB0F21032006F0C1FA2D2006F014FB0021032006F0BAFA2D2006F00DFB002186
:400DC000012006F0B3FA2D2006F006FB0B21002006F0ACFA7E2006F0FFFA0B21002006F0A5FA28E00B21002006F0A0FA2D2006F0F3FA0021002006F099FA2D2006F0ECFA8E
:400E00000021032006F092FA2D2006F0E5FA0021022006F08BFA2D2006F0DEFA0F21032006F084FA7E2006F0D7FA0F21032006F07DFA00E000BF00BF80BD00BFCEC0FF1FFF
:400E4000DCA60000F4A6000000A7000008A70000FAC2FF1F80B500AF2B4B1B78012B0FD1012006F0E1FA294806F098FA0A21032006F05CFA264806F091FA234B00221A709F
:400E8000244B1B78012B13D0022B20D0002B00D02CE00021012006F049FA1F4806F07EFA0021022006F042FA1C4806F077FA1DE00021012006F03AFA194806F06FFA002123
:400EC000022006F033FA174806F068FA0EE00021012006F02BFA124806F060FA0021022006F024FA104806F059FA00BF0021012006F01CFA7E2006F06FFA0021012006F0C7
:400F000015FA00BF80BD00BFCEC0FF1F20A70000A8A6000048C2FF1F30A7000044A7000058A700006CA700007CA7000080B500AF284B1B78012B0FD1012006F075FA26481D
:400F400006F02CFA0A21032006F0F0F9234806F025FA204B00221A70214B1B78032B2BD801A252F823F000BF790F0000890F0000990F0000A90F00000521012006F0D6F916
:400F8000184806F00BFA18E00521012006F0CEF9154806F003FA10E00521012006F0C6F9124806F0FBF908E00521012006F0BEF90F4806F0F3F900E000BF0421012006F06A
:400FC000B5F97E2006F008FA0421012006F0AEF900BF80BDCEC0FF1F8CA70000A8A6000049C2FF1F9CA70000A8A70000B4A70000C0A7000080B500AF184B1B78012B0FD13E
:40100000012006F011FA164806F0C8F90A21032006F08CF9134806F0C1F9104B00221A700421012006F082F90F4B1B881A460F490F4808F011FE0E4806F0B0F90D4806F094
:40104000ADF90521012006F071F97E2006F0C4F90521012006F06AF900BF80BDCEC0FF1FCCA70000A8A600004EC2FF1FE0A7000058C2FF1FE4A7000080B500AFA24B1B78ED
:40108000012B1DD1012006F0CFF9A04806F086F90021012006F04AF99D4806F07FF90021022006F043F99B4806F078F90021032006F03CF9984806F071F9934B00221A7014
:4010C000964B1B78072B00F21B8101A252F823F0F11000003311000075110000B7110000F91100003B1200007D120000BF1200000F21032006F01AF92D2006F06DF900214C
:40110000012006F013F92D2006F066F90B21002006F00CF92D2006F05FF90021002006F005F97E2006F058F90021002006F0FEF8E7E00021002006F0F9F82D2006F04CF94A
:401140000021022006F0F2F82D2006F045F90B21012006F0EBF82D2006F03EF90021012006F0E4F87E2006F037F90021012006F0DDF8C6E00021012006F0D8F82D2006F055
:401180002BF90021032006F0D1F82D2006F024F90B21022006F0CAF82D2006F01DF90021022006F0C3F87E2006F016F90021022006F0BCF8A5E00021022006F0B7F82D200B
:4011C00006F00AF90B21002006F0B0F82D2006F003F90F21032006F0A9F82D2006F0FCF80021032006F0A2F87E2006F0F5F80021032006F09BF884E00021032006F096F85E
:401200002D2006F0E9F80B21012006F08FF82D2006F0E2F80021002006F088F82D2006F0DBF80B21002006F081F87E2006F0D4F80B21002006F07AF863E00B21002006F082
:4012400075F82D2006F0C8F80B21022006F06EF82D2006F0C1F80021012006F067F82D2006F0BAF80B21012006F060F87E2006F0B3F80B21012006F059F842E00B210120EF
:4012800006F054F82D2006F0A7F80F21032006F04DF82D2006F0A0F80021022006F046F82D2006F099F80B21022006F03FF87E2006F092F80B21022006F038F821E0002127
:4012C000032006F033F82D2006F086F80021002006F02CF82D2006F07FF80B21022006F025F82D2006F078F80F21032006F01EF87E2006F071F80F21032006F017F800E02C
:4013000000BF00BF80BD00BFCEC0FF1FECA7000004A800001CA8000034A800003FC2FF1F80B500AF674B1B78012B16D1012006F07BF8654806F032F80021012005F0F6FFCA
:40134000624806F02BF80021032005F0EFFF604806F024F85B4B00221A705E4B1B78042B00F2AC8001A252F823F000BF81130000C3130000051400004714000089140000B4
:401380000F21032005F0D2FF2D2006F025F80021012005F0CBFF2D2006F01EF80B21002005F0C4FF2D2006F017F80021002005F0BDFF7E2006F010F80021002005F0B6FF8B
:4013C0007DE00021002005F0B1FF2D2006F004F80B21002005F0AAFF2D2005F0FDFF0B21012005F0A3FF2D2005F0F6FF0021012005F09CFF7E2005F0EFFF0021012005F09E
:4014000095FF5CE00021012005F090FF2D2005F0E3FF0B21012005F089FF2D2005F0DCFF0021002005F082FF2D2005F0D5FF0B21002005F07BFF7E2005F0CEFF0B210020D7
:4014400005F074FF3BE00B21002005F06FFF2D2005F0C2FF0F21032005F068FF2D2005F0BBFF0021012005F061FF2D2005F0B4FF0B21012005F05AFF7E2005F0ADFF0B21FA
:40148000012005F053FF1AE00021012005F04EFF2D2005F0A1FF0021002005F047FF2D2005F09AFF0F21032005F040FF7E2005F093FF0F21032005F039FF00E000BF00BF83
:4014C00080BD00BFCEC0FF1FECA7000004A800004CA8000040C2FF1F80B500AF134B1B78012B20D10C2005F09FFF012005F09CFF0F4805F053FF0021012005F017FF0D484F
:4015000005F04CFF0021022005F010FF0A4805F045FF0A21032005F009FF084805F03EFF024B00221A7000BF80BD00BFCEC0FF1F64A800007CA8000094A80000A8A60000B2
:4015400080B584B000AF0346FB710021012005F0EDFE0C4805F022FF0321012005F0E6FE0023FB7305E0FF2005F036FFFB7B0133FB73FA7BFB799A42F5D300BF1037BD4687
:4015800080BD00BFACA8000080B500AF184B1B78012B0FD1012005F047FF164805F0FEFE0A21032005F0C2FE134805F0F7FE104B00221A70114B1B781A4640F6340303FB41
:4015C00002F30F4A82FB03121213DB17D31ADBB21846FFF7B5FF0521002005F0A7FE7E2005F0FAFE0521002005F0A0FE00BF80BDCEC0FF1FC4A80000A8A600006CC3FF1F7F
:40160000AD8BDB6880B500AF184B1B78012B0FD1012005F009FF164805F0C0FE0A21032005F084FE134805F0B9FE104B00221A70114B1B781A461346DB009B1A5B000F4A5B
:4016400082FB03125211DB17D31ADBB21846FFF777FF0421002005F069FE7E2005F0BCFE0421002005F062FE00BF80BDCEC0FF1FD4A80000A8A6000026C7FF1F1F85EB515A
:4016800080B500AF1E4B1B78012B19D10C2005F0CBFE012005F0C8FE1A4805F07FFE0021022005F043FE184805F078FE0A21032005F03CFE154805F071FE114B00221A7010
:4016C0000021012005F032FE114B1B6813F1630F09DB0F4B1A680F4BB3F900300E490F4808F0BAFA07E00B4BB3F900301A460C490A4808F0B1FA094805F050FE00BF80BD8B
:40170000CEC0FF1FE4A80000FCA80000A8A6000030C7FF1F38C2FF1F10A9000058C2FF1F24A9000080B500AF5F4B1B78012B18D10C2005F079FE012005F076FE04230422EF
:401740005A495B4808F088FA594805F027FE0A21032005F0EBFD574805F020FE524B00221A70554B1B78012B17D10021012005F0DDFD524B1B781A46514B1B7851494C4883
:4017800008F06AFA4A4805F009FE0021022005F0CDFD4D4805F002FE84E0474B1B78022B17D10021012005F0C1FD444B1B781A46434B1B7845493E4808F04EFA3C4805F0B0
:4017C000EDFD0021022005F0B1FD3F4805F0E6FD68E0394B1B78032B10D10021012005F0A5FD364B1B781A46354B1B783849304808F032FA2E4805F0D1FD53E00021012021
:4018000005F094FD334805F0C9FD334B1B7803F01003002B07D00021022005F087FD2F4805F0BCFD3EE02C4B1B7803F00803002B07D00021022005F079FD294805F0AEFD0B
:4018400030E0254B1B7803F00103002B07D10021022005F06BFD234805F0A0FD22E01E4B1B7803F00203002B07D10021022005F05DFD1D4805F092FD14E0174B1B7803F06E
:401880000403002B07D00021022005F04FFD174805F084FD06E00021022005F047FD144805F07CFD00BF80BDCEC0FF1F34A9000058C2FF1FA8A60000E4C2FF1FE5C2FF1F06
:4018C000E6C2FF1F48A9000064A900007CA9000098A90000B4A90000D2C0FF1FCCA90000E4A90000FCA9000014AA00002CAA000044AA000080B500AF314B1B78012B5CD13C
:401900000C2005F091FD012005F08EFD0021002005F00CFD2B4805F041FD0921002005F005FD294805F03AFD0021012005F0FEFC264805F033FD0021022005F0F7FC244839
:4019400005F02CFD0A21032005F0F0FC214805F025FD0321002005F0E9FC042304221E491E4808F079F91D4805F018FD1021002005F0DCFC1A4B1B781A461A4B1B781649BC
:40198000164808F069F9154805F008FD0321012005F0CCFC002304220F49104808F05CF90E4805F0FBFC0921022005F0BFFC0E4805F0F4FC024B00221A7000BF80BD00BFA3
:4019C000CEC0FF1F5CAA000074AA000080AA000098AA0000A8A60000B0AA000058C2FF1FEEC2FF1FEFC2FF1FB8AA000080B582B000AF214B1B78012B16D10C2005F014FD72
:401A0000012005F011FD1D4805F0C8FC0021012005F08CFC0A21032005F088FC184805F0BDFC154B00221A700821012005F07EFC144B1B88144AA2FB03239B099BB2FB718B
:401A4000104B1B881946FB79104A02FB03F30B440F4A82FB03125211DB17D31ABB71FA79BB790C490C4808F0F7F80B4805F096FC00BF0837BD4680BDCEC0FF1FC0AA00003B
:401A8000A8A600004AC2FF1FD34D621018FCFFFF1F85EB51B0AA000058C2FF1F80B500AF184B1B78012B0FD1012005F0BDFC164805F074FC0A21032005F038FC134805F059
:401AC0006DFC104B00221A700421012005F02EFC0F4B1B881A460F490F4808F0BDF80E4805F05CFC0D4805F059FC0521012005F01DFC7E2005F070FC0521012005F016FC74
:401B000000BF80BDCEC0FF1FD8AA0000A8A60000AAC4FF1FE0A7000058C2FF1FE4A7000080B500AF184B1B78012B0FD1012005F07BFC164805F032FC0A21032005F0F6FB2F
:401B4000134805F02BFC104B00221A700421012005F0ECFB0F4B1B881A460F490F4808F07BF80E4805F01AFC0D4805F017FC0521012005F0DBFB7E2005F02EFC052101207A
:401B800005F0D4FB00BF80BDCEC0FF1FF0AA0000A8A6000024C7FF1FE0A7000058C2FF1FE4A7000080B500AF184B1B78012B0FD1012005F039FC164805F0F0FB0A210320C1
:401BC00005F0B4FB134805F0E9FB104B00221A700421012005F0AAFB0F4B1B881A460F490F4808F039F80E4805F0D8FB0D4805F0D5FB0521012005F099FB7E2005F0ECFB6F
:401C00000521012005F092FB00BF80BDCEC0FF1F08AB0000A8A6000066C3FF1FE0A7000058C2FF1FE4A7000080B500AF184B1B78012B0FD1012005F0F7FB164805F0AEFBB7
:401C40000A21032005F072FB134805F0A7FB104B00221A700421012005F068FB0F4B1B881A460F490F4807F0F7FF0E4805F096FB0D4805F093FB0521012005F057FB7E2044
:401C800005F0AAFB0521012005F050FB00BF80BDCEC0FF1F20AB0000A8A6000020C7FF1FE0A7000058C2FF1FE4A7000080B500AF184B1B78012B0FD1012005F0B5FB1648E9
:401CC00005F06CFB0A21032005F030FB134805F065FB104B00221A700421012005F026FB0F4B1B781A460F490F4807F0B5FF0E4805F054FB0D4805F051FB0521012005F0F4
:401D000015FB7E2005F068FB0521012005F00EFB00BF80BDCEC0FF1F38AB0000A8A6000068C3FF1FE0A7000058C2FF1FE4A7000080B582B000AF954B1B78032B1AD801A2A0
:401D400052F823F0551D00005D1D0000651D00006D1D0000012005F02FFF0FE0022005F02BFF0BE0032005F027FF07E0042005F023FF03E0002005F01FFF00BF0A2007F059
:401D800035FC06F00FF8002006F024F806F042F80346FB807D4B1B78032B00F2DC8001A252F823F0B51D0000531E0000AB1E0000011F0000B7F906307A2202FB03F3744A99
:401DC00082FB03129210DB17D31A724A1360724B1A68704B1B6813446F4A13606F4B1B780133DAB26D4B1A706C4B1B780F2B14D96A4B00221A70684B1B681B11684A1360F9
:401E0000674B1B68674A82FB03125210DB17D31A654A1360604B00221A60644B1B78002B40F09B80624B1B78012B04D0022B08D0002B0CD00CE05C4B1B689AB25D4B1A80D8
:401E400006E0594B1B689AB25A4B1A8000E000BF83E0B7F906304FF4FA7202FB03F3002B01DA03F6FF731B13A3F21113524A1360524B1A68504B1B681344504A1360504B9D
:401E80001B780133DAB24E4B1A704D4B1B78FF2B65D14B4B00221A70484B1B681B12494A1360464B00221A6059E0B7F9063041F6EA3202FB03F3444A82FB03129211DB174F
:401EC000D31A424A1360424B1A68404B1B6813443F4A13603F4B1B780133DAB23D4B1A703C4B1B780F2B3CD93A4B00221A70384B1B681B11384A1360354B00221A6030E0AA
:401F0000B7F9063041F2883202FB03F3002B01DA03F6FF731B131A46304B1A60304B1A682E4B1B6813442E4A13602E4B1B780133DAB22C4B1A702B4B1B780F2B13D9294B3C
:401F400000221A70264B1B681B11274A1360244B00221A6007E000BF06E000BF04E000BF02E000BF00E000BF084B1B78032B03D1064B00221A7005E0044B1B780133DAB20C
:401F8000024B1A7000BF0837BD4680BD3AC2FF1F67666666BCC2FF1FA0C2FF1FB4C2FF1F28C7FF1FABAAAA2AF0C4FF1F96C2FF1F94C2FF1F4AC2FF1FC0C2FF1FA4C2FF1F69
:401FC000B5C2FF1F30C7FF1FD34D6210C4C2FF1FA8C2FF1FB6C2FF1FFCC5FF1FC8C2FF1FACC2FF1FB7C2FF1F70C3FF1F80B500AF00BF4A4805F06CFD0346072BF9D005F01C
:4020000037F90021552005F08BF80121AA2005F087F8434B1B780221184605F081F8414B1B780321184605F07BF83F4B1B780421184605F075F83D4B1B780521184605F053
:402040006FF83B4B1B881B0A9BB2DBB20621184605F066F8364B1B88DBB20721184605F05FF8344B1B881B0A9BB2DBB20821184605F056F82F4B1B88DBB20921184605F064
:402080004FF82D4B1B881B0A9BB2DBB20A21184605F046F8284B1B88DBB20B21184605F03FF8264B1B780C21184605F039F8244B1B780D21184605F033F8224B1B780E2118
:4020C000184605F02DF8204B1B881B0A9BB2DBB20F21184605F024F81B4B1B88DBB21021184605F01DF8194B1B881B0A9BB2DBB21221184605F014F8144B1B88DBB2132132
:40210000184605F00DF8124B1B781421184605F007F805F0BDFC00BF80BD00BFA4C4FF1F41C2FF1F64C3FF1F48C2FF1F49C2FF1F4EC2FF1FAAC4FF1F66C3FF1F6CC3FF1FDC
:4021400026C7FF1F81C3FF1F24C7FF1F20C7FF1F68C3FF1FF0B5CFB008AF024607F10F031A70002387F81731B64B1B7803F00103002B00F0BF8307F10F031B780A2B00F24E
:40218000858301A252F823F0B52100001F2300005B230000B3230000D1240000112500004925000081250000B9250000F12500001127000007F114000023019304230093C3
:4021C00004230422A04907F047FD0346DAB297F81731134487F8173197F8173107F11402D0189A4B1B781A46994907F035FD0346DAB297F81731134487F8173197F8173153
:4022000007F11402D018934B1B781A46924907F023FD0346DAB297F81731134487F8173197F8173107F11402D0188C4B1B781A468B4907F011FD0346DAB297F817311344A8
:4022400087F8173197F8173107F11402D018854B1B881A46844907F0FFFC0346DAB297F81731134487F8173197F8173107F11402D0187E4B1B881A467D4907F0EDFC0346E6
:40228000DAB297F81731134487F8173197F8173107F11402D018774B1B881A46764907F0DBFC0346DAB297F81731134487F8173197F8173107F11402D018704B1B881A4629
:4022C0006F4907F0C9FC0346DAB297F81731134487F8173197F8173107F11402D018694B1B881A46684907F0B7FC0346DAB297F81731134487F8173197F8173107F1140212
:40230000D018624B1B781A46614907F0A5FC0346DAB297F81731134487F81731D2E25D4B1A685D4B1B881D465C4B1B7819465C4B1B781C465B4B1B7807F1140002930194D9
:4023400000912B46584907F087FC0346DAB297F81731134487F81731B4E2544B1B789E46534B1B789C46534B1B781A46524B1B781946494B1B881C46484B1B781D46484BE2
:402380001B781E46474B1B7807F1140005930496039502940191009263467246474907F05BFC0346DAB297F81731134487F8173188E2434B1B6813F1630F22DB404B1A686D
:4023C000404BB3F900301E46334B1B881946334B1B781C46324B1B781D46324B1B7807F1140003930295019400913346364907F033FC0346DAB297F81731134487F8173155
:4024000060E2304BB3F900301C46234B1B881D46224B1B781A46224B1B781946214B1B7807F114000293019100922B462246274907F012FC0346DAB297F81731134487F8DA
:4024400017313FE2D2C0FF1F50AB000041C2FF1F84AB000048C2FF1F9CAB000049C2FF1FB0AB00004EC2FF1FC4AB0000AAC4FF1FD8AB000024C7FF1FE8AB000066C3FF1F76
:40248000F8AB000020C7FF1F08AC000068C3FF1F18AC00008CC2FF1F00C3FF1F02C3FF1F03C3FF1F04C3FF1F28AC0000A9C4FF1FECC4FF1F1AC7FF1F22C7FF1F54AC000087
:4024C00030C7FF1F38C2FF1F80AC0000B8AC00007D4B1B881C467D4B1B881D467C4B1B781A467C4B1B7819467B4B1B7807F114000293019100922B462246784907F0ACFBBB
:402500000346DAB297F81731134487F81731D9E16E4B1B8819466E4B1B781C466D4B1B781A466D4B1B7807F114000193009223460A466B4907F090FB0346DAB297F81731EB
:40254000134487F81731BDE1604B1B881946604B1B781C465F4B1B781A465F4B1B7807F114000193009223460A465E4907F074FB0346DAB297F81731134487F81731A1E134
:40258000524B1B881946524B1B781C46514B1B781A46514B1B7807F114000193009223460A46514907F058FB0346DAB297F81731134487F8173185E1444B1B881946444B0D
:4025C0001B781C46434B1B781A46434B1B7807F114000193009223460A46444907F03CFB0346DAB297F81731134487F8173169E13F4B1B6813F1630F34DB3D4B1C683D4B64
:40260000B3F900309E463C4B1B683C4A12683C4909880D463B4909680E462C490988B9602B49097879602B49097839602A49097807F1140007913968069179680591B9683B
:4026400004910396029501920093734622462E4907F002FB0346DAB297F81731134487F817312FE1234BB3F900309E46224B1968224B1B68224A12881446224A126815465C
:40268000124A12881646124A1278BA60114A12787A60114A127807F1140006927A680592BA68049203960295019400930B467246164907F0D1FA0346DAB297F817311344CA
:4026C00087F81731FEE000BF4AC2FF1F00C3FF1F02C3FF1F03C3FF1F04C3FF1FF0AC00002CAD000050AD000078AD00009CAD000030C7FF1F38C2FF1FFCC5FF1FF0C4FF1F01
:40270000D0C0FF1FE0C2FF1FC4AD00001CAE00007B4B1B8819467B4B1B781C467A4B1B781A467A4B1B7807F114000193009223460A46774907F090FA0346DAB297F8173185
:40274000134487F8173197F8173107F11402D018704B1B781A46704907F07EFA0346DAB297F81731134487F8173197F8173107F11402D018694B1B781A46694907F06CFA4B
:402780000346DAB297F81731134487F8173197F8173107F11402D018624B1B781A46624907F05AFA0346DAB297F81731134487F8173197F8173107F11402D0185B4B1B880C
:4027C0001A465B4907F048FA0346DAB297F81731134487F8173197F8173107F11402D018544B1B881A46544907F036FA0346DAB297F81731134487F8173197F8173107F106
:402800001402D0184D4B1B881A464D4907F024FA0346DAB297F81731134487F8173197F8173107F11402D018464B1B881A46464907F012FA0346DAB297F81731134487F815
:40284000173197F8173107F11402D0183F4B1B881A463F4907F000FA0346DAB297F81731134487F8173197F8173107F11402D018384B1B781A46384907F0EEF90346DAB2FC
:4028800097F81731134487F817311BE01C4B1B8819461C4B1B781C461B4B1B781A461B4B1B7807F114000193009223460A462B4907F0D2F90346DAB297F81731134487F86E
:4028C000173100BF002387F816310DE097F8163107F11402D35C1946214803F00DFF97F81631013387F8163197F8162197F817319A42EBD300BF07F58E77BD46F0BD00BFEB
:4029000000C3FF1F02C3FF1F03C3FF1F04C3FF1F74AE000041C2FF1F84AB000048C2FF1F9CAB000049C2FF1FB0AB00004EC2FF1FC4AB0000AAC4FF1FD8AB000024C7FF1FF0
:40294000E8AB000066C3FF1FF8AB000020C7FF1F08AC000068C3FF1F18AC000098AE000090C4FF1F90B583B000AF0023FB71C84B00221A70002006F08DF8002005F068FED1
:4029800062B6002006F0CEF8002006F0DBF8002006F0F4F8002006F00BF9002006F026F9002004F0C5FE002004F0DCFA002004F0F7FA002004F012FB002004F02BFB0020A8
:4029C00004F046FB002004F061FB002004F07CFB002005F077FE002005F058FE002005F019FE002006F038F8002006F071F805F041FBA84805F0B8FFA74805F05BFF04F0C2
:402A0000CDFE4FF48072A549A54803F059FE05F0C9FE05F0B7FC05F09BFB05F053FC05F083FA05F0E5F805F02FFD04F06DFC05F0A9F8002005F0E4FE05F02AF800BF994838
:402A400005F046F80346072BF9D005F021F800BF944805F03DF80346072BF9D005F018F8904BB3F90020904B1A80002005F082FB002005F0A1F805F095F9002005F0AAF92C
:402A800005F0C8F905F08EF9002005F0A3F905F0C1F904F03FFB0A2006F0A8FD002004F0C9FB0346552B40F09080012004F0C2FB0346AA2B40F08980022004F0BBFB034672
:402AC0001A467A4B1A70032004F0B4FB03461A46774B1A70042004F0ADFB03461A46754B1A70052004F0A6FB03461A46724B1A70062004F09FFB03461B021CB2072004F00C
:402B000099FB03461BB223431BB29AB26B4B1A80082004F08FFB03461B021CB2092004F089FB03461BB223431BB29AB2644B1A800A2004F07FFB03461B021CB20B2004F0D8
:402B400079FB03461BB223431BB29AB25D4B1A800C2004F06FFB03461A465B4B1A700D2004F068FB03461A46584B1A700E2004F061FB03461A46564B1A700F2004F05AFB83
:402B800003461B021CB2102004F054FB03461BB223431BB29AB24F4B1A80122004F04AFB03461B021CB2132004F044FB03461BB223431BB29AB2484B1A80142004F03AFB81
:402BC00003461A46454B1A702BE0384B0A221A70374B0A221A70374B01221A70364B00221A70364B1E221A80374B3C221A70374B64221A70364B00221A70314BB4221A80CA
:402C0000344B19221A802F4BB4221A80324B19221A80324B05221A7006223149314807F007F8294B1B789BB2C3F164039BB21A4613461B029B1A2C4A82FB03125211DB1721
:402C4000D31A9AB2294B1A80284B1B88DBB2184605F0ECFB1D4B1B781A4613461B029B1A214A82FB03125211DB17D31A9AB2204B1A801F4B1B88DBB2184605F093FCFDF7AA
:402C800029FA012004F0D0FB00233B6038E000BFA7C4FF1F85000000AD000000FCC4FF1F90C4FF1FA4C4FF1F38C2FF1F41C2FF1F64C3FF1F48C2FF1F49C2FF1F4EC2FF1FEE
:402CC000AAC4FF1F66C3FF1F6CC3FF1F26C7FF1F81C3FF1F24C7FF1F20C7FF1F68C3FF1FB8AA0000D8C0FF1F1F85EB519AC2FF1F9CC2FF1FFF2004F06FFB3B6801333B6013
:402D00003B68132BF6DD0021012004F00FFB00233B6005E0FF2004F05FFB3B6801333B603B68132BF6DD0021022004F0FFFA00233B6005E0FF2004F04FFB3B6801333B60C7
:402D40003B68132BF6DD0021032004F0EFFA00233B6005E0FF2004F03FFB3B6801333B603B68132BF6DD002005F058FE012004F0F9F84FF4FA7006F017FC012005F04EFEDF
:402D8000002004F0EFF8002005F048FE012004F025F94FF4FA7006F007FC012005F03EFE002004F01BF9002005F038FE012004F0F7F84FF4FA7006F0F7FB012005F02EFE44
:402DC000002004F0EDF8002005F028FE012004F07BF94FF4FA7006F0E7FB012005F01EFE002004F071F9002005F018FE012004F02FF94FF4FA7006F0D7FB012005F00EFEE2
:402E0000002004F025F9002005F008FE012004F03DF94FF4FA7006F0C7FB012005F0FEFD002004F033F9012005F052FE002005F0F5FD012004F0EEF84FF4FA7006F0B4FB8A
:402E4000012005F0EBFD002004F0E4F8002005F03FFEFDF73FF90D2004F0E6FA002005F061FE042005F05EFEA44B01221A70FDF76FF9A34805F03AFF05F086FF002005F05C
:402E800061FE00BF9F4B1B78002BFBD09E4B1B6801339D4A1360012005F054FE994B00221A70FB79184605F0B9FDFB79002B02D10123FB7102E0954B1B78FB71944B1B78DD
:402EC000012B06D1FDF7DCF9924B1B68924A136023E0904B1A68904B1B68D31A8F4A93421BD98F4B1B78022B03D08D4B1B78092B09D18C4B05221A708B4B07221A708B4B3D
:402F000007221A7005E0864B00221A70854B00221A70804B1B68804A1360854B1B78012B0DD1844B1B78002B05D1834B1B78184605F0CEFD0AE0002005F0CAFD06E07F4BB0
:402F40001B78002B02D1002005F0C2FDFEF7F0FE7B4B1B78012B40F01581684B1B78012B40F00881012005F055FB002004F024FE0A2006F03BFB04F015FF002004F02AFF5C
:402F800004F048FF03461A4642F6E42303FB02F36C4A82FB03121213DB17D31A6A4A13606A4B1A68684B1B681344684A1360684B1B780133DAB2664B1A70654B1B780F2BE1
:402FC0001CD9624B1B681B11624A1360614B1A6813465B0013449B001A465F4B1A605E4B1B6849F64042934202DD5C4B01221A70574B00221A70554B00221A60584B1B7854
:40300000002B69D1524B1B78002B40F0C2803E4B1B6847F23052934203DC524B10221A7002E0504B01221A704B4B1A684E4B1B689A4200F0AE80484B1A684B4B1B689A4228
:4030400015DD4A4B1B8840F6FB72934200F2A180444B1B789AB2454B1B8813449AB2434B1A80424B1B88184605F084F891E03A4B1A683D4B1B689A4280F28B803B4B1B882B
:40308000002B00F086803A4B1B88022B1DD9374B1B881A46334B1B78D31A002B09DB334B1A88304B1B789BB2D31A9AB22F4B1A8002E02E4B00221A802C4B1B88184605F0C6
:4030C00059F82B4B00221A8063E0294B1B8801339AB2274B1A805CE0244B1B8840F6FB72934256D8214B1B8801339AB21F4B1A801E4B1B88184605F03DF84AE0FCC2FF1F46
:403100008D5B000034C2FF1F44C2FF1FF7C2FF1F36C2FF1F04C6FF1F70C2FF1FBF2709003CC2FF1F6DC2FF1F3FC2FF1F3EC2FF1FDDC2FF1FDEC2FF1FD4C0FF1F10C6FF1F94
:4031400088C2FF1FAD8BDB68CCC2FF1FB0C2FF1FB8C2FF1F88C4FF1F00C6FF1FDCC2FF1F96C2FF1F80C3FF1F8CC2FF1FD0C0FF1F08C3FF1F002005F04DFA4FF4346004F08D
:40318000F9FF06E0002005F045FA4FF4346004F0F1FF9E4B1B88F92B0ED99C4B00221A809B4B1B78002B03D1994B01221A7009E0974B00221A7005E0944B1B8801339AB281
:4031C000924B1A80934B1B8840F2E632934208D9FDF7B6F98F4B00221A808F4B01221A7005E08C4B1B8801339AB28A4B1A808A4B1B78012B61D105F013FB03461A46874B85
:403200001A80002005F0FCFA854804F061FC0346072B52D0824BB3F90020824B1A8004F037FC814B1B78002B29D17E4BB3F90030462B03DC7D4B1B68642B3EDD7C4B0122AF
:403240001A707C4B03221A700320FEF783FF764B01221A70784B01221A70784B05221A70774B1B685B10764A1360754B1B68B3F57A7F22DA724B4FF47A721A601DE0694B88
:40328000B3F900303B2B0DDC684B1B68592B09DC654B00221A70FCF71DFF6A4B1A78674B1A700AE0614B1B68692B06DD664B01221A70634B4FF47A721A60574B1B78012BB0
:4032C0006DD1624B1B78082B06D9604B00221A705F4B01221A7005E05C4B1B780133DAB25A4B1A705B4B1B783A2B06D9594B00221A70594B01221A7005E0564B1B78013317
:40330000DAB2544B1A70444B00221A70534B1B8801339AB2514B1A80514B1B780133DAB24F4B1A704E4B1B783B2B22D94D4B1B780133DAB24B4B1A70494B00221A70494B27
:403340001B783B2B15D9484B1B780133DAB2464B1A70444B00221A70434B1B78182B08D9424B1B8801339AB2404B1A803E4B00221A703F4B1B780133DAB23D4B1A703C4B65
:403380001B78092B0BD93A4B00221A70284B01221A70284B09221A700920FEF7DBFE2E4B1B78012B7ED1334B1B8840F29E52934206D9304B00221A802F4B01221A7005E031
:4033C0002C4B1B8801339AB22A4B1A802B4B1B8840F6E602934206D9284B00221A80284B01221A7005E0254B1B8801339AB2234B1A80244B1B8841F2DE02934246D9214BE5
:4034000000221A80204B01221A7045E0F8C2FF1FD4C0FF1F74C2FF1F7EC2FF1F6AC3FF1FA4C4FF1F38C2FF1F9EC2FF1F30C7FF1FF2C2FF1FF3C2FF1FDDC2FF1FCDC0FF1FCE
:403440008CC2FF1F3DC2FF1F41C2FF1F7FC2FF1F81C2FF1F80C2FF1F82C2FF1FFEC2FF1F04C3FF1F03C3FF1F02C3FF1F00C3FF1FF6C2FF1F78C2FF1F84C2FF1F7AC2FF1FC9
:4034800085C2FF1F7CC2FF1F86C2FF1FB44B1B8801339AB2B24B1A80B24B00221A70B24B01221A70B14B1B68002B07D0B04B00221A80AE4B1B68013BAC4A1360AD4B1B78F5
:4034C000172B01F2918201A252F823F02D3500006F35000099350000393700002B380000A93900000B3B0000AF3B0000573C0000CF3C00008B3E0000DF3F000047410000BE
:403500003D420000B5420000E9490000D54300007B4400001F450000C34500008746000029470000E147000073490000924B1B78012B0FD1904B00221A70FEF757FDFCF740
:40354000C9FD8E4B01221A708D4B0A221A700A20FEF700FE8B4B01221A70864B01221A70894B01221A70FCF7EBFF01F046BA874B1B78002B01F03C82844B00221A70814B7E
:4035800000221A70804B01221A70FDF735F9794B02221A7001F02CBA7C4B1B78052B00F2C48001A252F823F033370000C1350000E935000011360000313600005136000009
:4035C000724B00221A70724B1B78002B03D1704B07221A7005E06E4B1B78013BDAB26C4B1A70FDF709F9A5E0684B00221A70684B1B78072B03D1664B00221A7005E0644B54
:403600001B780133DAB2624B1A70FDF7F5F891E05F4B1B78032B07D85D4B1B780433DAB25B4B1A70FDF7E8F8584B00221A7081E0574B1B78032B07D9554B1B78043BDAB271
:40364000534B1A70FDF7D8F8504B00221A7071E04E4B00221A704C4B01221A704C4B1B78072B60D801A252F823F000BF8D3600009F360000B1360000C3360000D536000067
:40368000E73600000D3700001F3700003D4B00221A70384B15221A70FDF716FA44E0394B00221A70334B03221A70FDF769FA3BE0344B00221A702F4B05221A70FDF7CAFBD5
:4036C00032E0304B00221A702A4B06221A70FDF72DFC29E02B4B00221A70264B08221A70FEF784F920E0274B00221A70294B1B78002B05D11F4B16221A70FDF711FE13E043
:403700001C4B09221A70FDF7B7FC0DE01D4B00221A70184B17221A70FEF7ECF804E0154B00221A7000E000BF04E0184B00221A7000E000BF01F061B9144B1B78052B6AD836
:4037400001A252F823F000BF2538000099370000C9370000F937000001380000093800007CC2FF1F82C2FF1F83C2FF1F90C2FF1FFEC2FF1F3CC2FF1F76C2FF1FF2C2FF1F00
:40378000F3C2FF1FCCC0FF1FCEC0FF1F6DC2FF1F3EC2FF1F0AC3FF1FA84B00221A70A84B1B78312B05D8A64B1B780133DAB2A44B1A70A44B01221A70A34B01221A70FCF745
:4037C00089FCFDF7DDF92EE09C4B00221A709C4B1B78012B05D99A4B1B78013BDAB2984B1A70984B01221A70974B01221A70FCF771FCFDF7C5F916E0904B00221A7012E008
:403800008E4B00221A700EE08C4B00221A708F4B00221A7007E08D4B00221A70874B00221A7000E000BF01F0E8B8844B1B78052B00F2B38001A252F823F000BFA3390000A1
:40384000553800007D380000A5380000D338000001390000794B00221A707D4B1B78002B03D17B4B05221A7005E0794B1B78013BDAB2774B1A70FDF7DFF993E06F4B002238
:403880001A70734B1B78052B03D1714B00221A7005E06F4B1B780133DAB26D4B1A70FDF7CBF97FE06A4B1B78012B05D8684B04221A70FDF7C1F908E0654B1B78032B04D8DF
:4038C000634B05221A70FDF7B7F95C4B00221A7068E05F4B1B78042B05D15D4B00221A70FDF7AAF908E05A4B1B78052B04D1584B03221A70FDF7A0F9504B00221A7051E081
:403900004E4B00221A70534B01221A70504B1B78052B40D801A252F823F000BF3539000047390000593900006B3900007D3900008F390000484B00221A70444B10221A7096
:40394000FEF7ACF828E0444B00221A703F4B11221A70FEF7E5F81FE03F4B00221A703B4B12221A70FEF71EF916E03B4B00221A70364B13221A70FEF757F90DE0364B002290
:403980001A70324B14221A70FEF790F904E02F4B00221A7000E000BF04E0284B00221A7000E000BF01F029B8244B1B78052B00F2A28001A252F823F0053B0000D139000015
:4039C0006D3A0000D93A0000E13A0000E93A00001A4B00221A70214B1B78012B05D81F4B1B780133DAB21D4B1A701C4B1B78022B03D01B4B00221A701AE003F059FE03466E
:403A000003F00103DAB2174B1A7003F061FE034603F00103DAB2144B1A70124B1B78002B06D1114B1B78002B02D10D4B01221A70054B01221A70FDF70DFA64E06DC2FF1FA3
:403A400041C2FF1F81C3FF1F76C2FF1F3CC2FF1FFAC2FF1FCEC0FF1FCCC0FF1F48C2FF1FD4C2FF1F36C7FF1F8CC4FF1FB24B00221A70B24B1B78002B05D0B04B1B78013BB9
:403A8000DAB2AE4B1A70AD4B1B78022B03D0AC4B00221A701AE003F00BFE034603F00103DAB2A84B1A7003F013FE034603F00103DAB2A54B1A70A34B1B78002B06D1A24BD0
:403AC0001B78002B02D19E4B01221A709F4B01221A70FDF7BFF916E0974B00221A7012E0954B00221A700EE0934B00221A70984B00221A7007E0964B00221A708E4B0022E4
:403B00001A7000E000BF00F078BF8B4B1B78052B43D801A252F823F0A93B0000313B0000573B00007D3B0000853B00008D3B0000814B00221A70874B1B78022B05D8854BA8
:403B40001B780133DAB2834B1A70804B01221A70FDF7ECF929E0784B00221A707D4B1B78002B05D07B4B1B78013BDAB2794B1A70764B01221A70FDF7D9F916E06E4B002202
:403B80001A7012E06C4B00221A700EE06A4B00221A706F4B00221A7007E06D4B00221A70654B00221A7000E000BF00F026BF624B1B78052B45D801A252F823F0513C00003C
:403BC000D53B0000FF3B0000253C00002D3C0000353C0000584B00221A705F4B1B8840F2E632934205D85C4B1B8801339AB25A4B1A80564B01221A70FDF7FCF929E04E4BC6
:403C000000221A70544B1B88002B05D0524B1B88013B9AB2504B1A804C4B01221A70FDF7E9F916E0444B00221A7012E0424B00221A700EE0404B00221A70454B00221A70C2
:403C400007E0434B00221A703B4B00221A7000E000BF00F0D2BE384B1B78052B2DD801A252F823F0C93C00007D3C0000893C0000953C0000A13C0000AD3C00002E4B0022D2
:403C80001A70FDF7B3FE20E02B4B00221A70FDF7ADFE1AE0284B00221A70FDF7A7FE14E0254B00221A70FDF7A1FE0EE0224B00221A70274B00221A7007E0254B00221A7097
:403CC0001D4B00221A7000E000BF00F096BE1A4B1B78052B00F2CF8001A252F823F000BF853E0000F93C0000213D0000733D0000933D0000B33D00000F4B00221A70174B77
:403D00001B78002B03D1154B07221A7005E0134B1B78013BDAB2114B1A70FDF7ADF9B2E0054B00221A700D4B1B78072B18D10B4B00221A701AE000BF6DC2FF1F48C2FF1FFC
:403D4000D4C2FF1F36C7FF1F8CC4FF1F76C2FF1F3CC2FF1F49C2FF1F4EC2FF1F3FC2FF1FA94B1B780133DAB2A74B1A70FDF784F989E0A54B1B78032B05D8A34B1B7804333B
:403D8000DAB2A14B1A70FDF777F9A04B00221A7079E09D4B1B78032B05D99B4B1B78043BDAB2994B1A70FDF767F9984B00221A7069E0964B00221A70954B01221A70924B51
:403DC0001B78072B55D801A252F823F0ED3D0000FF3D0000113E0000233E0000353E0000473E0000593E00006B3E0000894B00221A70894B0B221A70FDF7C6FB3AE0854BD9
:403E000000221A70844B0C221A70FDF7FBFB31E0804B00221A70804B0D221A70FDF730FC28E07C4B00221A707B4B04221A70FCF703FF1FE0774B00221A70774B0A221A706E
:403E4000FDF74AFB16E0734B00221A70724B0E221A70FDF767FC0DE06E4B00221A706E4B07221A70FDF7C6F804E06B4B00221A7000E000BF07E0684B00221A70634B002270
:403E80001A7000E000BF00F0B8BD03F07BFC034603F00903DAB2614B1A70604B1B78002B0CD15F4BB3F900309BB201339BB21AB25B4B1A805B4B00221A7002E0584B002261
:403EC0001A80524B1B78062B45D801A252F823F05F3F0000ED3E0000FF3E0000113F0000233F0000353F00004F3F00004E4B55221A70FCF77DF9454B00221A7030E04A4B0C
:403F000044221A70FCF774F9404B00221A7027E0454B52221A70FCF76BF93C4B00221A701EE0414B4C221A70FCF762F9374B00221A7015E0354B00221A70394B00221A807C
:403F4000384B00221A70344B00221A7008E02F4B00221A7004E02D4B00221A7000E000BF2F4BB3F9003042F21072934240F342852E4B0A221A702E4B0A221A702D4B01225E
:403F80001A702D4B00221A702C4B1E221A802C4B3C221A702B4B64221A702B4B00221A702A4BB4221A802A4B19221A80294BB4221A80294B19221A80284B05221A70284B08
:403FC00001221A70164B00221A80164B00221A70114B00221A70FCF77DF800F00BBD0B4B1B78052B00F2A58001A252F823F000BF4141000065400000BD4000001541000059
:404000001D410000254100003FC2FF1F6DC2FF1FCEC0FF1FCCC0FF1F3CC2FF1FD8C2FF1FDAC2FF1F14C3FF1F2CC7FF1F41C2FF1F64C3FF1F48C2FF1F49C2FF1F4EC2FF1F81
:404040006CC3FF1F26C7FF1F81C3FF1FAAC4FF1F24C7FF1F66C3FF1F20C7FF1F68C3FF1F76C2FF1FA44B00221A70A44B1B783C2B05D8A24B1B780A33DAB2A04B1A70A04BFC
:4040800001221A709D4B1B789BB2C3F164039BB21A4613461B029B1A9A4A82FB03125211DB17D31A9AB2984B1A80974B1B88DBB2184604F0BBF9FDF767FA42E08E4B00228D
:4040C0001A708E4B1B78092B05D98C4B1B780A3BDAB28A4B1A708A4B01221A70874B1B789BB2C3F164039BB21A4613461B029B1A844A82FB03125211DB17D31A9AB2824B3C
:404100001A80814B1B88DBB2184604F08FF9FDF73BFA16E0784B00221A7012E0764B00221A700EE0744B00221A70784B00221A7007E0764B00221A706F4B00221A7000E0C0
:4041400000BF00F05ABC6C4B1B78052B6DD801A252F823F0394200006D410000BD4100000D420000154200001D420000624B00221A70674B1B785A2B05D8654B1B780A330F
:40418000DAB2634B1A705E4B01221A70604B1B781A4613461B029B1A5A4A82FB03125211DB17D31A9AB25B4B1A805A4B1B88DBB2184604F0F7F9FDF725FA3EE04E4B002215
:4041C0001A70534B1B78092B05D9514B1B780A3BDAB24F4B1A704A4B01221A704C4B1B781A4613461B029B1A464A82FB03125211DB17D31A9AB2474B1A80464B1B88DBB23A
:40420000184604F0CFF9FDF7FDF916E03A4B00221A7012E0384B00221A700EE0364B00221A703A4B00221A7007E0384B00221A70314B00221A7000E000BFDEE32E4B1B783C
:40424000052B2ED801A252F823F000BFB142000065420000714200007D4200008942000095420000244B00221A70FDF709FA20E0214B00221A70FDF703FA1AE01E4B0022FB
:404280001A70FDF7FDF914E01B4B00221A70FDF7F7F90EE0184B00221A701C4B00221A7007E01A4B00221A70134B00221A7000E000BFA2E3184B1B78012B03D0164B1B7881
:4042C000022B2FD103F05EFA034603F00903DAB2124B1A70114B1B78002B09D1104BB3F900309BB201339BB21AB20D4B1A801CE00B4B00221A8018E06DC2FF1F6CC3FF1F34
:4043000076C2FF1F1F85EB519AC2FF1F3CC2FF1F26C7FF1F9CC2FF1FE4C2FF1FD8C2FF1FDAC2FF1FB04B00221A80B04B1B78062B33D801A252F823F0A943000055430000EF
:40434000614300006D430000794300008543000093430000A54B00221A70FDF7E3F924E0A24B00221A70FDF7DDF91EE09F4B00221A70FDF7D7F918E09C4B00221A70FDF7E5
:40438000D1F912E0994B00221A70994B00221A700BE0964B00221A7007E0954B00221A70924B00221A7000E000BF8F4BB3F9003042F21072934240F31F838E4B01221A7072
:4043C0008D4B01221A70884B00221A80884B00221A7011E3854B1B78052B45D801A252F823F000BF77440000FD430000254400004B440000534400005B4400007B4B0022B6
:404400001A707E4B1B88B3F5167F05D27B4B1B8801339AB2794B1A80774B01221A70FDF73DFB29E0714B00221A70744B1B88012B05D9724B1B88013B9AB2704B1A806E4BBD
:4044400001221A70FDF72AFB16E0684B00221A7012E0664B00221A700EE0644B00221A70634B00221A7007E0614B00221A705F4B00221A7000E000BFBFE25C4B1B78052BF0
:4044800044D801A252F823F01B450000A1440000C9440000EF440000F7440000FF440000524B00221A70564B1B88B3F5967F05D2534B1B8801339AB2514B1A804E4B012209
:4044C0001A70FDF72DFB29E0484B00221A704C4B1B88002B05D04A4B1B88013B9AB2484B1A80454B01221A70FDF71AFB16E03F4B00221A7012E03D4B00221A700EE03B4B9B
:4045000000221A703A4B00221A7007E0384B00221A70364B00221A7000E000BF6DE2334B1B78052B44D801A252F823F0BF450000454500006D450000934500009B45000018
:40454000A3450000294B00221A702E4B1B88B3F5167F05D22B4B1B8801339AB2294B1A80254B01221A70FDF71DFB29E01F4B00221A70244B1B88012B05D9224B1B88013BAC
:404580009AB2204B1A801C4B01221A70FDF70AFB16E0164B00221A7012E0144B00221A700EE0124B00221A70114B00221A7007E00F4B00221A700D4B00221A7000E000BF0E
:4045C0001BE20A4B1B78052B54D801A252F823F0834600000946000031460000574600005F46000067460000DAC2FF1F6DC2FF1F3CC2FF1FECC2FF1F76C2FF1FAAC4FF1F2B
:4046000024C7FF1F66C3FF1FAC4B00221A70AC4B1B88B3F5967F05D2A94B1B8801339AB2A74B1A80A74B01221A70FDF7FDFA29E0A24B00221A70A24B1B88002B05D0A04B0F
:404640001B88013B9AB29E4B1A809E4B01221A70FDF7EAFA16E0994B00221A7012E0974B00221A700EE0954B00221A70964B00221A7007E0944B00221A70904B00221A7018
:4046800000E000BFB9E18D4B1B78052B43D801A252F823F025470000AD460000D3460000F94600000147000009470000834B00221A70864B1B78092B05D8844B1B78013337
:4046C000DAB2824B1A707F4B01221A70FDF7EEFA29E07A4B00221A707C4B1B78052B05D97A4B1B78013BDAB2784B1A70754B01221A70FDF7DBFA16E0704B00221A7012E0B0
:404700006E4B00221A700EE06C4B00221A706E4B00221A7007E06C4B00221A70674B00221A7000E000BF68E1644B1B78052B4ED801A252F823F000BFDD47000051470000BB
:4047400081470000B1470000B9470000C14700005A4B00221A705E4B1B78312B05D85C4B1B780133DAB25A4B1A705A4B00221A70544B01221A70FBF7ADFCFCF7A5F92EE0AB
:404780004E4B00221A70524B1B78012B05D9504B1B78013BDAB24E4B1A704E4B00221A70484B01221A70FBF795FCFCF78DF916E0424B00221A7012E0404B00221A700EE09A
:4047C0003E4B00221A70404B00221A7007E03E4B00221A70394B00221A7000E000BF0CE1364B1B78052B00F2BB8001A252F823F06F490000094800003148000059480000E1
:4048000083480000DD4800002C4B00221A70324B1B78002B03D1304B04221A7005E02E4B1B78013BDAB22C4B1A70FCF779FD9FE0224B00221A70284B1B78042B03D1264BF6
:4048400000221A7005E0244B1B780133DAB2224B1A70FCF765FD8BE01F4B1B78002B03D11D4B02221A7006E01B4B1B78012B02D1194B03221A70FCF753FD104B00221A70E1
:4048800076E0154B1B78022B03D1134B00221A700EE0114B1B78032B03D10F4B01221A7006E00D4B1B78042B02D10B4B01221A70FCF736FD014B00221A7059E06DC2FF1F44
:4048C00020C7FF1F76C2FF1F3CC2FF1F68C3FF1F64C3FF1F81C3FF1F40C2FF1FA24B00221A70A24B01221A70A14B1B78042B35D801A252F823F000BF0D4900001F490000C6
:40490000314900004349000055490000994B00221A70994B0B221A70FCF736FE1FE0954B00221A70944B0C221A70FCF76BFE16E0904B00221A70904B0A221A70FCF7CCFD39
:404940000DE08C4B00221A708B4B0E221A70FCF7E9FE04E0884B00221A7000E000BF07E0854B00221A70804B00221A7000E000BF43E07D4B1B78052B2DD801A252F823F02F
:40498000E549000099490000A5490000B1490000BD490000C9490000734B00221A70FCF7A9FF20E0704B00221A70FCF7A3FF1AE06D4B00221A70FCF79DFF14E06A4B00222E
:4049C0001A70FCF797FF0EE0674B00221A706A4B00221A7007E0684B00221A70624B00221A7000E000BF08E0634B00221A7004E000BF02E000BF00E000BF02F079FE0346E2
:404A000003F00103002B0CBF01230023DBB21A465A4B1A7002F07CFE034603F00103002B0CBF01230023DBB21A46554B1A7003F00FF8034603F00103002B0CBF01230023AF
:404A4000DBB21A464F4B1A7003F012F8034603F00103002B0CBF01230023DBB21A464A4B1A70494B1B78DB005AB2464B1B789B005BB213435AB2424B1B785B005BB2134385
:404A80005AB23E4B1B785BB213435BB2DAB23F4B1A703A4B1B78012B0BD0394B1B78012B07D0384B1B78012B03D0374B1B78012B02D1374B63221A70364B1A78364B1A70AD
:404AC000364B1B78012B13D1354B1B7803F00103002B0CBF01230023DBB21A46314B1A702F4B1B7803F00103DAB22F4B1A700FE002F0DEFD034603F00103DAB2294B1A703E
:404B000002F0E6FD034603F00103DAB2264B1A70264B1B78002B5FD1224B1B78012B4FD1214B1B78002B4BD1012002F039FA002002F054FA1E4B1B88B3F57A7F03D21D4B58
:404B400001221A7002E01B4B00221A701A4B1B881A464FF47A7303FB02F3184A13600D4B01221A7038E000BF6DC2FF1FCEC0FF1F40C2FF1FCCC0FF1F3CC2FF1F22C7FF1F72
:404B80001AC7FF1FECC4FF1FA9C4FF1F19C7FF1F87C2FF1F94C2FF1F95C2FF1FD4C2FF1F98C2FF1F36C7FF1F8CC4FF1F48C2FF1F6AC3FF1F97C2FF1F4EC2FF1F50C2FF1F52
:404BC0006E4B00221A70002002F0EAF9002002F005FA6B4B00221A706A4B1B78012B07D0684B1B78022B72D1674B1B78002B6ED1664B1B78012B22D1654B1B78002B1ED178
:404C0000012002F0CDF9002002F0E8F9614B1B88B3F57A7F03D2594B01221A7002E0574B00221A705C4B1B881A464FF47A7303FB02F35A4A1360524B01221A7047E0534B6F
:404C40001B78002B22D1524B1B78012B1ED1012002F0C4F9002002F0A3F94E4B1B88B3F57A7F03D2454B01221A7002E0434B00221A70494B1B881A464FF47A7303FB02F3F5
:404C8000464A13603E4B02221A7020E03F4B1B78012B10D13E4B1B78012B0CD1374B00221A70012002F07CF9012002F097F9344B00221A700BE0314B00221A70002002F0C2
:404CC0006FF9002002F08AF92D4B00221A702D4B1B78022B66D12C4B1B78012B62D1304B1B78002B24D1012002F05AF9002002F075F9002003F0CAFC012003F0E3FC254B6B
:404D00001B88B3F57A7F03D21C4B01221A7002E01A4B00221A70204B1B881A464FF47A7303FB02F31D4A1360154B01221A703FE0012002F053F9002002F032F9002003F00D
:404D4000C1FC012003F0A2FC124B1B88B3F57A7F03D20A4B01221A7002E0084B00221A700D4B1B881A464FF47A7303FB02F30B4A1360034B02221A701AE000BF97C2FF1FF9
:404D800094C2FF1F48C2FF1FD4C2FF1F36C7FF1F8CC4FF1F6AC3FF1F4EC2FF1F50C2FF1F98C2FF1F002003F08DFC002003F06EFCCF4B1B78632B00F2B58301A252F823F07B
:404DC000514F0000C34F0000A5500000D55000005D510000E3510000A9520000315300002555000025550000255500002555000025550000255500002555000025550000B6
:404E000025550000255500002555000025550000255500002555000025550000255500002555000025550000255500002555000025550000255500002555000025550000D2
:404E40002555000025550000255500002555000025550000255500002555000025550000255500002555000025550000255500002555000025550000255500002555000092
:404E80002555000025550000C75300004D5400002555000025550000255500002555000025550000255500002555000025550000255500002555000025550000255500008B
:404EC0002555000025550000255500002555000025550000255500002555000025550000255500002555000025550000255500002555000025550000255500002555000012
:404F000025550000255500002555000025550000255500002555000025550000255500002555000025550000255500002555000025550000255500002555000025550000D1
:404F4000255500002555000025550000A5540000002003F0E7FD042003F0E4FD654B00221A70002003F0AEFB002003F08FFB624B00221A70012001F0F5FF002002F068F855
:404F8000002002F0A1F8002003F062FB5B4B07221A705B4B07221A705A4B00221A705A4B00221A70594B1B78022B06D1584B00221A804F4B32221A70C5E24D4B01221A7084
:404FC000C1E2544B1B78002B35D1534B1B78002B31D1524B1A78524B1B789A4203D14A4B1B78012B10D1454B02221A70444B02221A704C4B4FF47A721A603D4B02221A7018
:40500000494B00221A704CE0474B1B78002B0BD1454B01221A70454B01221A70444B07221A700720FDF796F8424B00221A70002002F02CF835E0374B1B78012B18D12F4B4B
:4050400006221A70002002F021F8012001F0E2FF274B62221A70354B01221A70344B04221A700420FDF776F8324B01221A706AE2224B08221A70002002F008F8012001F043
:40508000C9FF1B4B62221A70284B01221A70284B05221A700520FDF75DF8264B01221A7051E250E2174B1B78002B06D1002001F0EDFF0F4B00221A7036E21A4B1B68002B5A
:4050C00040F03282174B4FF47A721A60084B03221A7029E20B4B1A78174B1B789A422DD0002001F0D3FF024B00221A701EE200BF87C2FF1FFBC2FF1F88C2FF1FCDC0FF1F0E
:405100003DC2FF1F94C2FF1FD4C2FF1F48C2FF1FD6C2FF1F96C2FF1FDCC2FF1F36C7FF1F8CC4FF1F90C2FF1F06C3FF1FF2C2FF1FF3C2FF1FDDC2FF1F95C2FF1FAC4B1B68E9
:40514000002B40F0F381AB4B1B68A94A1360012003F07EFAA84B04221A70E7E1A74B1A78A74B1B789A4206D0002001F08FFFA24B00221A70DCE19E4B1B68002B40F0D881BA
:40518000A04B1B78002B21D1994B41F288321A609D4B04221A709D4B04221A70012001F075FF9B4B1B78002B40F0C281994B01221A70994B08221A700820FCF7CBFF944B4F
:4051C00001221A70954B01221A70B1E1002001F05DFF874B4FF47A721A60874B05221A70A6E1864B1A78864B1B789A4206D0002001F04CFF804B00221A709BE1814B1B78CA
:40520000002B21D1012001F041FF7F4B04221A707E4B04221A70764B41F288321A607C4B1B78002B40F086817A4B01221A707A4B08221A700820FCF78DFF754B01221A7029
:40524000764B01221A7075E1694B1B68002B40F07181674B4FF4FA621A60002001F016FF012001F031FF684B00221A70674B00221A706B4B4FF434621A806A4B01221A706B
:40528000002003F04FFC012003F04CFC012003F0C1F94FF4346002F06DFF574B06221A70614B00221A6045E1544B1A78544B1B789A4203D0504B00221A703DE1514B1B78C9
:4052C000002B12D1012001F0E1FE544B01221A70504B01221A70504B06221A700620FCF739FF454B00221A7026E1504B1B78012B03D1414B00221A701EE13D4B1B68002B9F
:4053000040F01A814A4B00221A804A4B00221A70394B07221A703E4B00221A703D4B01221A703D4B01221A700120FCF713FF03E1324B1A78324B1B789A4203D02E4B0022C7
:405340001A70FBE02F4B1B78002B15D1012001F09DFE324B01221A702E4B01221A702E4B06221A700620FCF7F5FE2C4B01221A70214B00221A70E1E02F4B1B68B3F57A6FEB
:4053800006DD2E4B01221A701B4B00221A70D5E02B4B1B6840F6C31293420BDC294B1B78012B07D1224B1B88002B03D0124B00221A70C3E01D4B1B78012B40F0BF800E4BA9
:4053C00000221A70BAE0204BB3F900309BB201339BB21AB21C4B1A801B4BB3F90030B3F5FA7F40F3AD80044B33221A70A8E000BF90C2FF1F50C2FF1F87C2FF1F94C2FF1FD2
:4054000095C2FF1F97C2FF1FCDC0FF1F3DC2FF1F07C3FF1FF2C2FF1FF3C2FF1FDDC2FF1FD0C0FF1F88C2FF1F44C2FF1FDCC2FF1FFEC2FF1FFBC2FF1FF0C4FF1F96C2FF1F77
:4054400070C3FF1FFCC2FF1FD6C2FF1F02F030F9034603F00103DAB2A34B1A7002F038F9034603F00103DAB2A04B1A709E4B1B78012B03D09D4B1B78012B06D19C4B002284
:405480001A709C4B01221A705DE0994B01221A70954B00221A70954B00221A70954B01221A7050E0944B1B78002B15D1934B1B78002B11D1924B1B78002B0DD1914B1B7842
:4054C000002B09D1002001F0E1FD8F4B00221A70884B00221A7035E08C4B00221A70002003F0B6F8012001F0B3FD002001F0CEFD002001F0E9FD864B03221A70854B032250
:405500001A70814B1B78002B1CD1834B01221A70824B02221A700220FCF71CFE7A4B01221A700FE000BF0EE000BF0CE000BF0AE000BF08E000BF06E000BF04E000BF02E053
:4055400000BF00E000BF764B1B78022B4DD1754B1B78032B4DD801A252F823F06D5500008D550000AD550000CB5500006E4B1B78012B40D16D4B1B78002B03D16B4B012216
:405580001A7038E0694B00221A7034E0684B1B78012B32D1654B1B78002B03D1634B01221A702AE0614B00221A7026E0614B1B78012B0AD15D4B1B78002B03D15B4B012212
:4055C0001A7002E0594B00221A705B4B1B78012B15D1564B1B78002B03D1544B01221A700DE0524B00221A7009E0504B00221A7006E000BF04E000BF02E000BF00E000BF37
:40560000494B00221A704A4B00221A70494B00221A70494B00221A70484B1B78052B00F2F08001A252F823F04156000085560000AD56000061570000A3570000C95700006A
:405640003F4B1A883F4B1B889A42C0F0DE80002003F068FA042003F065FA4FF4346002F089FD394B4FF434621A80384B01221A70334B00221A80364B00221A702F4B012282
:405680001A70C2E02E4B1A88324B1B889A42C0F0BE802E4B01221A70294B00221A802C4B00221A70254B02221A70B0E02A4B1B789AB2234B1B889A4200F2AB80002003F021
:4056C00031FA032003F02EFA204B01221A701C4B00221A801E4B01221A70184B03221A701E4B00221A6094E036C7FF1F8CC4FF1FD4C2FF1F87C2FF1F22C7FF1F1AC7FF1FBB
:40570000ECC4FF1FA9C4FF1F05C3FF1F88C2FF1FCDC0FF1F3DC2FF1FF2C2FF1FF3C2FF1F48C2FF1F49C2FF1F84C2FF1F98C2FF1F85C2FF1F86C2FF1F83C2FF1FFBC2FF1F1F
:40574000FEC2FF1FAAC4FF1FD0C0FF1FCEC0FF1FFCC2FF1F24C7FF1F68C3FF1F44C2FF1F724B1A88724B1B889A4254D3002003F0D9F9042003F0D6F94FF4346002F0FAFCC7
:405780006C4B4FF434621A806B4B01221A70674B00221A80694B00221A70694B04221A7039E0624B1A88674B1B889A4235D3624B01221A705D4B00221A80604B00221A7074
:4057C0005F4B05221A7028E05F4B1B789AB2574B1B889A4223D8002003F0A4F9012003F0A1F9554B01221A70504B00221A80534B01221A70524B00221A70544B00221A60D0
:405800000DE04F4B00221A700AE000BF08E000BF06E000BF04E000BF02E000BF00E000BF03F070F90346002B11D1494B1B78002B09D0474B1B78013BDAB2454B1A70454BE9
:4058400001221A7009E0434B00221A7005E0414B01221A703E4B32221A7000F0A1FC002000F032F93C4B1B78002B7DF407AB3B4B1B78002B3DF402AB394B1B78012B17D057
:40588000022B29D0002B41D1012003F021F9354B1B8801339AB2334B1A80324B1B88322B3BD12F4B01221A702E4B00221A8034E0002003F00DF92B4B1B8801339AB2294B7D
:4058C0001A80284B1B88322B2AD1254B02221A70244B00221A8023E0012003F0F9F8214B1B8801339AB21F4B1A801E4B1B88322B19D11B4B00221A701A4B00221A80174BD4
:4059000000221A70002003F0E3F80CE0154B00221A80124B00221A7006E000BFFDF7AEBA00BFFDF7ABBA00BFFDF7A8BAFEC2FF1F66C3FF1FD0C0FF1FCEC0FF1FFCC2FF1F33
:40594000FBC2FF1F20C7FF1F68C3FF1F44C2FF1F7CC1FF1F7DC1FF1FDDC2FF1F10C6FF1F82C3FF1F34C7FF1F80B582B000AF01F097FF0346FB71FB7903F02003002B13D00C
:4059800001F0A0FF0346BB80BB881B0A9BB2FB70BB88BB70084B1B78002BE8D0BB781946064800F0A9FEE2E700BF03F093F900BF0837BD4680BD00BF27C7FF1F50C3FF1FC4
:4059C00080B487B000AF78604FF47A727B68B2FBF3F2364B1B681344344A1360344B1B780133DAB2324B1A70314B1B78052B4CD12E4B1B682F4AA2FB03239B082B4A1360CD
:405A00002A4B1B685B003B613B694FF47A7202FB03F33B613B69284AA3FB0212981A40080244D20A40F6C96101FB02F29B1A7B617B6940F26472934202D901237B6101E0D3
:405A400000237B613A691C4BA3FB0213D21A52081344DA0A7B691344FB60FB68DAB2174B1A70164B1B78322B02D9144B32221A70124B1B78002B02D1104B01221A700C4BC2
:405A800000221A70094B00221A600D4B1A680D4B1B68D31A41F28732934202D9074B00221A7000BF1C37BD4680BC704718C3FF1FA8C4FF1FCDCCCCCC39DC0815F8C4FF1F46
:405AC00004C6FF1F1CC7FF1F80B582B000AF0346FB71254B1B780133DAB2234B1A70FB79002B3DD1204B1B78322B39D11F4B1A681F4B1B6813441D4A13601E4B1A681E4BC7
:405B00001B6813441B4A1360174B00221A701B4B1B78002B06D0194B1B78013BDAB2174B1A701DE0114B1B68154AA2FB03231B09144A13600F4B1B68114AA2FB03231B09EE
:405B4000114A13600F4B1B681846FFF739FF074B00221A60074B00221A60084B14221A7000BF0837BD4680BDEDC4FF1F0CC6FF1F84C3FF1F08C6FF1FF4C4FF1F7EC1FF1F7E
:405B8000CDCCCCCC78C3FF1F7CC3FF1F80B582B000AF01F0E7FD0346FB71FB79012B2AD1304B1B78002B11D103F096FF0346184603F0B8FF03F062FF2A4B01221A702A4BE4
:405BC00001221A70294B01221A7020E003F0B8FF0246274B1A6003F07FFF0346184603F0A1FF03F04BFF1F4B00221A70214B1B68214A13600BE01B4B1B78012B07D103F053
:405C00009FFF02461D4B1A60174B00221A70174B1B78002B20D0144B1B78002B0BD103F05BFF0246154B1B68D31A154AA2FB03239B09144A13600B4B1B78002B0CD103F0A5
:405C40004BFF02460A4B1B68D31A0D4AA2FB03239B090D4A136000BF03F096F800BF0837BD4680BD1CC3FF1F1DC3FF1F1EC3FF1F20C3FF1F04C6FF1F1CC7FF1F24C3FF1FDE
:405C8000D34D6210F4C4FF1F84C3FF1F90B585B000AF0346FB800B467B7113463B7100237B7200233B72434B1B78002B7AD10023FB8108E0FB89404AD25C7B7A13447B7275
:405CC000FB890133FB81FA89FB88013B9A42F1DBFB8939497A7ACA54384B00221A700023FB8108E0FB89344AD35C184601F01CFEFB890133FB81FA89FB889A42F2D32F4BC9
:405D000001221A703B79002B4ED00023FB8164237B81642003F06AFC294800F045FD0346BB810DE0FC89264800F014FD0346DAB2244B1A55FB890133FB81BB89013BBB810E
:405D4000BB89002BEED17B89002B02D101233B7207E07B89013B7B817B799BB2FA899A42D7D37B799BB2FA899A421DD100237B720023FB8108E0FB89124AD25C7B7A134436
:405D80007B72FB890133FB81FA897B79013B9A42F1DBFB890B4AD35C7A7A9A4204D002233B7201E005233B723B7A18461437BD4690BD00BF7DC1FF1F14C6FF1F27C7FF1F66
:405DC00050C3FF1F88C3FF1F90B585B000AF0346FB710523FB730023BB8100237B72224800F0E2FC03467B81FB799BB27A899A4211D10DE0BC891C4800F0ACFC0346DAB224
:405E00001A4B1A55BB890133BB817B89013B7B817B89002BEED1FB799BB2BA899A421DD100237B720023BB8108E0BB890F4AD25C7B7A13447B72BB890133BB81BA89FB791C
:405E4000013B9A42F1DBBB89084AD35C7A7A9A4202D00223FB7301E00023FB73FB7B18461437BD4690BD00BF50C3FF1F88C3FF1F80B582B000AF0023BB7103237B711A4B2E
:405E800055221A70184BAA225A70174BA5229A70154B0022DA70144B00221A710023FB7111E0012203210620FFF7F0FE0346BB71BB79002B0CD00D4B1B6801330B4A136085
:405EC000FB790133FB71FA797B799A42E9D300E000BFFA797B799A4201D30423BB71BB7918460837BD4680BD14C6FF1FE0C2FF1F80B582B000AF0023BB7103237B71002323
:405F00003B712B4B1B78002B4BD12A4B55221A70284BAA225A70274B11229A70254B0022DA70244B00221A713B7905333B71214B4C225A711F4B6F229A711E4B6722DA71BF
:405F40001C4B2E221A721B4B74225A72194B78229A72184B7422DA723B7908333B71154B0722DA700023FB710EE03B799BB2002204211846FFF78AFE0346BB71BB79002BE4
:405F800007D0FB790133FB71FA797B799A42ECD300E000BFFA797B799A4204D30423BB7101E00523BB71BB7918460837BD4680BD7DC1FF1F14C6FF1F90B583B000AF002304
:405FC000BB7103233B7100237B71304B1B78002B55D12F4B55221A702D4BAA225A702C4B12229A702A4B0022DA70294B00221A717B7905337B71274800F0D6FB03467B8069
:406000007B88002B16D00023FB710EE0FB795C1D204800F09FFB0346DAB21D4B1A557B7901337B71FB790133FB71FB799BB27A889A42EBD8164AFB79D3700023FB7113E021
:406040007B799BB201339BB2002208211846FFF71DFE0346BB71BB79002B09D0BB79052B06D0FB790133FB71FA793B799A42E7D3FA793B799A4204D30423BB7101E00523B6
:40608000BB71BB7918460C37BD4690BD7DC1FF1F14C6FF1F90C4FF1F80B582B000AF0023BB7103237B711B4B55221A70194BAA225A70184B10229A70164B0022DA70154B25
:4060C00000221A710023FB7114E0012208210620FFF7DCFD0346BB71BB79002B0ED0BB79052B0BD00C4B1B6801330B4A1360FB790133FB71FA797B799A42E6D3FA797B79F1
:406100009A4201D30423BB71BB7918460837BD4680BD00BF14C6FF1FE0C2FF1F80B582B000AF0023BB7103237B711B4B1B78002B2BD11A4B55221A70184BAA225A70174B7C
:4061400013229A70154B0022DA70144B00221A710023FB710CE0002204210620FFF796FD0346BB71BB79002B07D0FB790133FB71FA797B799A42EED300E000BFFA797B79CE
:406180009A4204D30423BB7101E00523BB71BB7918460837BD4680BD7DC1FF1F14C6FF1F80B582B000AF9C4B1B88002B26D09A4B1B88013B9AB2984B1A80984B1B78002B50
:4061C00008D0964B00221A70934B00221A80944BA5221A70934B1B7803F00103002B00F05C82914800F0E0FA0346FB80FB88002B00F053828A4B11221A704EE2884B1B780D
:40620000132B00F0F981132B0FDC102B46D0102B04DC002B1FD0012B2BD03EE2112B00F02F81122B00F0A38137E2FC2B00F0AE81FC2B06DCA52B00F0D980FB2B00F0EA8191
:406240002BE2FE2B00F0E080FE2BC0F25881FF2B00F0168221E2002002F01CFC02F0F2FC02F038FD6E4B01221A706B4B19221A8013E2012002F00EFC01F034FB40226B49C5
:406280006B4800F01DFA6B4802F0CAFC644B10221A70614B40F6C4121A80FEE1FFF7FCFE03467B717B79002B40F09580624B5B78102B5AD1604B9B7803F00703DAB2594BC3
:4062C0001A70584B1B7803F00103002B47D0554B1B7803F00203002B41D0524B1B7803F00403002B37D1544BDA78544B1A70524B1A79534B1A70514B1B789BB21B029AB28A
:406300004F4B1B789BB213449AB24E4B1A804E4B40F204421A804B4B1A884B4B1B889A4203D24A4B02221A700CE0464B1A88464B1B889A4203D1454B03221A7002E0434B4B
:4063400001221A703C4B5A79414B1A703A4B9A79404B1A7006E03D4B00221A7002E03B4B00221A703C4B00221A802E4B1B7803F00103002B03D0394B01221A700AE0374B44
:4063800000221A70364B02221A7040222749284800F096F9314B1A78324B1B789A4209D02E4B1A782F4B1A702F4B01221A702F4B00221A702E4B1B78002B12D12C4B01225E
:4063C0001A702C4B01221A702B4B00221A700020FBF7C0FE05E07B79052B02D00E4BFA221A800D4B4FF47A721A8056E1FFF740FD03467B717B79002B06D10F4B5B78A52B60
:4064000002D11E4B01221A70054B10221A70024B4FF47A721A8040E128C3FF1FECC2FF1FA7C4FF1FD2C0FF1F90C4FF1FACC4FF1F50C3FF1F6959000088C3FF1FE5C2FF1F01
:40644000E6C2FF1FE8C2FF1FEAC2FF1FE4C2FF1FEEC2FF1FEFC2FF1F2AC3FF1FA6C4FF1FD3C0FF1F74C3FF1F10C6FF1F82C3FF1FF4C2FF1FF2C2FF1FF3C2FF1FEDC2FF1F2D
:40648000FFF70AFE03467B717B79002B2FD1854B5B78102B23D1834B9B7803F00703DAB2814B1A70804B1B7803F00103002B0ED0FFF71EFD03467B717B79002B40F0E280A3
:4064C0007A4BFD221A707A4B00221A80DAE0774B10221A70774B4FF4FA721A80D2E0734B10221A70734B4FF4FA721A80CAE06F4B10221A706F4B4FF4FA721A80C2E004204E
:40650000FFF762FC03467B717B79002B10D1654B5B78112B40F0B880624B9B78002B40F0B380624B12221A70634B00221A70ABE05F4B1B88B3F5FA6F12D15C4B10221A7069
:406540005C4B4FF4FA721A80594B00221A805A4B01221A70594B1B680133584A136093E0534B1B8801339AB2514B1A808CE0FFF723FD03467B717B79002B40F087804B4BFC
:40658000FC221A704A4B00221A807FE00820FFF71BFC03467B717B79002B0ED1414B5B78122B75D13F4B9B78002B71D13F4B13221A70414B00221A706AE03D4B1B88B3F591
:4065C000FA6F12D1394B10221A703A4B4FF4FA721A80374B00221A80374B01221A70374B1B680133354A136052E0314B1B8801339AB22F4B1A804BE0FFF790FD03467B71E1
:406600007B79002B46D1294BFB221A70284B00221A803FE00420FFF7D7FB03467B717B79002B0ED11F4B5B78132B35D11D4B9B78002B31D11D4B10221A701F4B00221A7039
:406640002AE01B4B1B88B3F5FA6F12D1174B10221A70184B4FF4FA721A80154B00221A80154B01221A70154B1B680133134A136012E00F4B1B8801339AB20D4B1A800BE0ED
:4066800000BF0AE000BF08E000BF06E000BF04E000BF02E000BF00E000BF00BF0837BD4680BD00BF88C3FF1FD2C0FF1FA7C4FF1F2AC3FF1F28C3FF1FD3C0FF1FE0C2FF1F1F
:4066C00080B485B000AFF860B9607A60FB68BA685A60FB685A68FB681A60FB681A68FB689A60BA687B681A44FB68DA6000BF1437BD4680BC704700BF80B485B000AF786005
:406700000B46FB707B681B68002B1BD07B681B68FA781A707B681B680133FB607B68DA68FB689A4202D17B689B68FB607B685A68FB689A4201D1002306E07B68FA681A60D4
:40674000012301E04FF0FF3318461437BD4680BC704700BF80B485B000AF78607B685B68002B1AD07B685A687B681B689A4214D07B685B681B78BB607B685B680133FB6046
:406780007B68DA68FB689A4202D17B689B68FB607B68FA685A60BB6801E04FF0FF3318461437BD4680BC704780B487B000AF78607B685B681A467B689B68D31A3B617B6804
:4067C0001B681A467B689B68D31AFB607B68DB681A467B689B68D31ABB60FA683B699A4206D3FB689AB23B699BB2D31AFB8209E0BB689AB2FB689BB213449AB23B699BB2B3
:40680000D31AFB82FB8A18461C37BD4680BC704780B582B000AF786039603A680021786803F011FA00BF0837BD4680BD80B584B000AFF860B9607A607A68B968F86803F0A3
:40684000F7F900BF1037BD4680BD00BF80B483B000AF0346FB71FEE780B487B000AF7860396000233B6100237B6127E07B699B007A6813441B68BB60BB68FB73BB6823F006
:40688000FF03BB6014E03B695B003A6813441B781A46BB68134419463B695B003A6813445B780B703B6901333B61FB7B013BFB73FB7B002BE7D17B6901337B617B69242BA9
:4068C000D4D900BF1C37BD4680BC704780B582B000AF494B0C221A80484B18221A70484B17221A80474B18221A70474B5F221A80464B18221A70464B40F2AF421A80454B7E
:4069000018221A70444B47F22F521A80434B19221A70042242494348FFF788FF424B02221A704FF0402308221A70404B03221A703F4B404A1278D2B21A703F4B08221A80DF
:406940003E4B41F251221A800023FB7019237B6014E0FB785B00DAB2394B1B78DBB203F00103DBB21343DBB203F00303FB704FF4F07003F005F97B68013B7B607B68002B50
:4069800002D0FB78032BE4D17B68002B02D10320FFF75CFF2B4B4FF480721A80294B07221A70294B00221A70284B48221A70254B00221A70264B02221A70264B04221A700B
:4069C000254A254B1B78DBB243F01F03DBB21370224A224B1B78DBB243F00103DBB213701F4A1F4B1B78DBB263F07F03DBB2137000BF0837BD4680BD8040004082400040DB
:406A00008440004086400040884000408A4000408C4000408E4000409040004092400040D0090048004100400043004000420040A146004008010049224200402042004098
:406A400025420040044000400640004008400040014000400B400040A2430040A1430040A043004080B582B000AF264B1B78FB71254B1B78BB71254B1B787B71244AFB79DF
:406A800003F00703DBB21370224AFB791B09DBB213701D4ABB7943F00303DBB213701B4A7B7943F00303DBB213701B4B40221A701A4B40221A701A4B20221A70194B1022C5
:406AC0001A70194B06221A70184B20221A70184B4FF481721A80174B40F201121A80164B10221A700A2002F081FD084A7B791370054ABB791370114B44221A7000BF083783
:406B0000BD4680BDCF010049F8460040F94600406E5800406F5800400159004003590040905A0040985A0040205B0040235B0040405B0040445B0040585B0040765800402C
:406B400080B483B000AF0346FB71FB79042B24D8FA79FB791344FB71FB79124A52F82330FA79104951F822201178FA790E48825C0A43D2B21A70FB790133FB71FB79094AD7
:406B800052F82330FA79074951F822201178FA790548825C0A43D2B21A7000BF0C37BD4680BC7047BCAE0000E4AE000080B483B000AF0346FB71FB79042B28D8FA79FB791F
:406BC0001344FB71FB79144A52F82330FA79124951F822201178FA791048825CD243D2B20A40D2B21A70FB790133FB71FB790A4A52F82330FA79084951F822201178FA7923
:406C00000648825CD243D2B20A40D2B21A7000BF0C37BD4680BC7047BCAE0000E4AE000080B582B000AF72B60023FB7113E0FA7913465B0013445B00464A13443B603B6885
:406C40001A683B689B889BB219461046FFF7E0FDFB790133FB71FB79052BE8D93E494FF09040FFF7F9FD3D4B20221A7004213C48FFF7CEFD3B4A3B4B1B78DBB243F00203DB
:406C8000DBB21370384A384B1B78DBB243F00203DBB21370354A354B1B78DBB243F04003DBB21370324A324B1B78DBB243F01003DBB2137008222F492F48FFF7B7FD0A2254
:406CC0002E492F48FFF7B2FD05222E492E48FFF7ADFD0A222D492E48FFF7A8FD08222D492D48FFF7A3FD08222C492D48FFF79EFD0A222C492C48FFF799FD08222B492C4897
:406D0000FFF794FD08222B492B48FFF78FFD08222A492B48FFF78AFD2A4A2A4B1B78DBB243F00803DBB21370274B61221A70FFF7CDFD254B81221A70244B01221A70FFF767
:406D400091FE0E2209492248FFF770FD00BF0837BD4680BDF0AE00009400004812600040007600400350014013500140A0430040C243004074090048025100407C09004850
:406D8000C051004088090048CB51004090090048F05100409C09004812510040A409004822510040AC09004830510040B809004842510040C009004852510040C80900480C
:406DC00062510040224300400048004004000840B043004080B500AF02F0FEFE03461B680C2B00D1FEE7FEE780B584B000AF78600F4B1A687B6813441A460E4BD31A802B2D
:406E000009DC0B4B1B68FB60094B1A687B681344074A136007E002F0DFFE02460C2313604FF0FF33FB60FB6818461037BD4680BD80C1FF1F90C7FF1F80B586B000AF224B56
:406E40007B61224B3B61204B7B6135E03B691B68FB603B695B68BB603B699B683B6000237B600CE0FB681A68BB681A60BB680433BB60FB680433FB607B6804337B607A68DE
:406E80003B689A42EED13B69DB683B6000237B6008E0BB6800221A60BB680433BB607B6804337B607A683B689A42F2D13B6910333B617B69013B7B617B69002BC6D102F0C8
:406EC00091FEFBF74FFDFEE70100000070AF000080B582B000AF194B194A1A60194A194B1B6843F40073136000237B600FE07B68032B04D8144A7B6852F8233000E0134B0C
:406F000013497A6841F822307B6801337B607B682F2BECD90F4B1B78DAB20F4B1A700F4B0B4A1A60FFF77CFE02F050F80C4B00221A6000BF0837BD4680BD00BF0CED00E09B
:406F40000004FA0514ED00E000000000D56D000000C0FF1FBC760040C4C0FF1F08ED00E0C0C0FF1F80B485B000AF0346FB710B4B1B78DBB223F00203FB730849FB795B009D
:406F8000DBB203F00203DAB2FB7B1343DBB20B7000BF1437BD4680BC704700BF3051004080B485B000AF0346FB710B4B1B78DBB223F00803FB730849FB79DB00DBB203F07D
:406FC0000803DAB2FB7B1343DBB20B7000BF1437BD4680BC704700BF3051004080B485B000AF0346FB710A4B1B78DBB223F00103FB730749FB7903F00103DAB2FB7B1343CC
:40700000DBB20B7000BF1437BD4680BC704700BF3051004080B485B000AF0346FB710B4B1B78DBB223F00203FB730849FB795B00DBB203F00203DAB2FB7B1343DBB20B70FA
:4070400000BF1437BD4680BC704700BFF051004080B485B000AF0346FB710B4B1B78DBB223F01003FB730849FB791B01DBB203F01003DAB2FB7B1343DBB20B7000BF14371B
:40708000BD4680BC704700BF3051004080B485B000AF0346FB710B4B1B78DBB223F00403FB730849FB799B00DBB203F00403DAB2FB7B1343DBB20B7000BF1437BD4680BCFF
:4070C000704700BF3051004080B485B000AF0346FB710B4B1B78DBB223F02003FB730849FB795B01DBB203F02003DAB2FB7B1343DBB20B7000BF1437BD4680BC704700BF8F
:407100003051004080B500AF02F0C2F902F0D2F900BF80BD80B500AFFFF7F4FF00BF80BD80B584B000AF03460A46FB711346BB8002F0BCFABB88B3F5006F70D2BB881B091F
:407140007B817B891B019BB2BA88D31A3B8102F0E1FB0346002B5FD1FA1D39890123402002F0F2FAF860FB68072B4CD14FF0FF33FB6000BF2D4B1B78DBB203F00203002BBE
:40718000F8D02A4B1B78DBB203F00203002B08D0264B1B78DBB29B08DBB2002B01D10023FB60FB68002B2AD1214B1A78204B5B787989402002F030FB0346072B1BD14FF051
:4071C000FF33FB6000BF194B1B78DBB203F00203002BF8D0154B1B78DBB203F00203002B17D0124B1B78DBB29B08DBB2002B10D10023FB600DE04FF0FF33FB6009E04FF032
:40720000FF33FB6005E0FB68012B02D04FF0FF33FB6002F0B3FB04E00423FB6001E00123FB60FB6818461037BD4680BD2247004084C7FF1F80B584B000AF0346FB8002F021
