:1000000080410020ED2E0100E52F0100E52F0100C9
:1000100000000000000000000000000000000000E0
:10002000000000000000000000000000E52F0100BB
:100030000000000000000000E52F0100E52F010096
:10004000E52F0100E52F0100E52F01008586000066
:1000500051160100E52F0100E52F0100CD1101002F
:10006000E52F0100DDE00000F5E000000DE10000FB
:1000700025E100000000000000000000E52F010065
:10008000E52F0100E52F0100D9D10000EDD10000DE
:1000900001D200000000000000000000E52F010078
:1000A000E52F0100E52F0100E52F0100E52F0100FC
:1000B0000000000010B5064C2378002B07D1054B3B
:1000C000002B02D0044800E000BF0123237010BDC4
:1000D00028020020000000002C460100084B10B54B
:1000E000002B03D00749084800E000BF0748036819
:1000F000002B00D110BD064B002BFBD09847F9E731
:10010000000000002C0200202C4601002C460100BB
:100110000000000080B582B000AF78600A00FB1CD0
:100120001A707B6831229B5C5BB2FA1C1278012149
:1001300091400A0052B2D24352B213405BB2D9B2DC
:100140007B6831229954C046BD4602B080BD000094
:1001500080B584B000AF0F23FB1801221A70354B15
:100160001B68002B5FD072B6334B1B68334A832168
:1001700049004B43D31802331A78314B9A702E4BF7
:100180001B682E4A832149004B43D31803331A7846
:100190002B4BDA70284B1B68284A832149004B43BC
:1001A000D31804331A78264B1A710023BB6013E06E
:1001B000214B1B68214A832149004B43D218BB685D
:1001C000D318053319781E4ABB68D31805330A1CA7
:1001D0001A70BB680133BB60194BDB781A00BB682F
:1001E0009A42E5D8164BDB787B6008E0144A7B68BE
:1001F000D318053300221A707B6801337B607B685B
:10020000FE2BF3D90C4B1B68013303221A400A4B17
:100210001A60084B1B685A1E064B1A6062B60F2301
:10022000FB1800221A700F23FB181B781800BD461C
:1002300004B080BD4C02002044020020F8100020D1
:10024000180A002080B584B000AF78600A00FB1C5B
:100250001A700F23FB1801221A700E23FB180022BC
:100260001A70314B1B68002B56D172B60C23FB1849
:1002700000221A801EE00C23FB181B880C22BA18DF
:10028000128879688A181178284AD1540C23FB18EF
:100290001B887A68D31819780E23FB180E22BA1817
:1002A00012788A181A700C23FB181A880C23FB1872
:1002B00001321A807B681B789BB20C22BA18128814
:1002C0009A42D8D90C23FB181B880C22BA18591C47
:1002D00011801900154B0E22BA1812785A54FB1CC3
:1002E0001A78114B1A60124B00221A60104B1B68CF
:1002F000591C0F4A11600D4A9A180E4B1100180034
:100300000D4B9847084B1B685A1E074B1A6062B684
:100310000F23FB1800221A700F23FB181B781800FC
:10032000BD4604B080BDC04654020020200B002012
:1003300050020020E81A002081DC000080B582B065
:1003400000AF0200FB1D1A70134BFA1D12781A70D1
:10035000124B1B7801225340DBB2002B18D0FB1D3F
:100360001B7801225340DBB2002B04D00C4B984782
:100370000C4B984703E00C4B98470C4B98470C4AA2
:100380000C4B110018000C4B9847044B01221A70BB
:10039000C046BD4602B080BD240E00205802002099
:1003A00081830000358500002584000081850000E0
:1003B0001C1B0020E81A0020B9DC000080B500AF4B
:1003C0000F4B1B78002B16D00E4B002118000E4B44
:1003D00098470C4B012118000B4B9847094B002103
:1003E00018000A4B9847074B01211800074B984704
:1003F000034B00221A7000231800BD4680BDC04682
:1004000058020020E81A00201501000035DC000029
:1004100080B500AF054B1A68054B1B68D31ADB4348
:10042000DB05DB0D1800BD4680BDC0462C1000204A
:100430002810002080B584B000AF786039600023B8
:10044000FB6072B63B689AB27968054B1800054BA1
:10045000984762B6FB681800BD4604B080BDC04630
:10046000E81A002081D9000080B584B000AF786020
:10047000994B1B68042B00D986E09A00974BD31840
:100480001B689F467B681B78552B11D17B681A78B7
:10049000934B1A70924B1A78924B1A708E4B1B68C2
:1004A0005A1C8D4B1A60904B1A68904B1A600EE1E3
:1004B000894B00221A608E4B00221A7007E17B687C
:1004C0001B78AA2B14D17B681A78854B5A70844B01
:1004D0005A78844B1B78D318DAB2824B1A707E4B51
:1004E0001B685A1C7C4B1A60814B01221A70EEE08B
:1004F000794B00221A607E4B00221A70E7E07C4B99
:100500001B78002B00D1DBE07B681A78744B9A7063
:10051000734B9A78734B1B78D318DAB2714B1A70FD
:100520006D4B1B685A1C6C4B1A60C9E0704B1B78F2
:10053000002B00D1C6E07B681A78694BDA70684BF3
:10054000DA78684B1B78D318DAB2664B1A70624BB4
:100550001B685A1C604B1A60B4E0654B1B78002B7B
:1005600000D1B1E07B681A785D4B1A715C4B1A7947
:100570005C4B1B78D318DAB25A4B1A70564B1B6877
:100580005A1C554B1A609FE0574B1A68574B1B6813
:10059000D31A312B06D9504B00221A60544B00223B
:1005A0001A7093E0524B1B78002B00D18EE04C4B1D
:1005B000DB785A1D484B1B689A421AD9464B1B6878
:1005C000053B7A681178464AD3180A1C5A71424B87
:1005D0001B68053B424AD3185A79424B1B78D31803
:1005E000DAB2404B1A703C4B1B685A1C3A4B1A60EB
:1005F0006CE07B681A783B4B1B789A4203D03D4BEA
:100600001B78002B55D03C4B1B68354A90783B4AF1
:10061000832149004B43D3180233021C1A70364B16
:100620001B682F4AD078354A832149004B43D318A1
:100630000333021C1A70304B1B68294A10792F4A69
:10064000832149004B43D3180433021C1A70002342
:10065000FB6013E0284B1B682149FA688A180532B1
:100660001078264A832149004B43D218FB68D318DF
:100670000533021C1A70FB680133FB60FB68FE2B1C
:10068000E8D91D4B1B68013303221A401A4B1A602C
:100690001B4B1B68032B07D91A4B1B680133032222
:1006A0001A40184B1A6004E0154B1B685A1C144B77
:1006B0001A60094B00221A600D4B00221A7005E0E7
:1006C000C04604E0C04602E0C04600E0C046C04666
:1006D000BD4604B080BDC0465C020020BC3D0100A8
:1006E0006002002066030020B01A0020680300208A
:1006F0006C0300205902002048020020F81000205E
:100700004C0200204402002080B500AF0D4B1B6856
:10071000002B10D00C4B1B68591C0B4A11600B4A64
:100720009A180B4B110018000A4B9847054B1B6891
:100730005A1E044B1A60084B02221A76C046BD4668
:1007400080BDC0465402002050020020200B002033
:10075000E81A002081DC00000008004280B582B069
:1007600000AF78600B4B1B78DBB2002B0ED072B65B
:100770007B681A78084B11001800084B984762B63E
:10078000074A084B11001800074B9847C046BD4662
:1007900002B080BD240E0020040A0020A97C0000C5
:1007A0001C1B0020E81A0020B9DC000080B584B0D2
:1007B00000AF0200FB1D1A700F23FB18FA1D127800
:1007C000D2091A700E23FB18FA1D127852091A70FA
:1007D0000D4BBB600F23FB181B78002B0FD10F2391
:1007E000FB181B789B0010229446BC446344083BD2
:1007F0001A680E23FB181B78DB01D31800E00023D6
:100800001800BD4604B080BD0044004180B582B0F0
:1008100000AF0200FB1D1A70FB1D1B781800034B74
:10082000984703001800BD4602B080BDAD07000028
:1008300080B584B000AF0200FB1D1A70BB1D0A1CFE
:100840001A70FB1D1B7818000D4B98470300FB60C6
:10085000FB1D1B781F22134001229A401300BB602E
:10086000BB1D1B78002B03D0FB68BA689A6102E0BD
:10087000FB68BA685A61C046BD4604B080BDC04638
:100880000D08000080B500AF034B00211800034B9A
:100890009847C046BD4680BDB41A00201DD900004F
:1008A00080B584B000AF0200BB1D1A800F23FB1877
:1008B00000221A70BB1D1B88082B2ED00CDC052BC8
:1008C0001CD004DC002B46D0042B12D048E0062BB1
:1008D00019D0072B1CD043E00B2B2DD004DC092BA7
:1008E00020D00A2B23D03BE00F2B2AD0FF2B2DD07A
:1008F00036E00F23FB18CC221A7036E00F23FB18CA
:10090000CD221A7031E00F23FB18CE221A702CE092
:100910000F23FB18CF221A7027E00F23FB18D022D9
:100920001A7022E00F23FB18D1221A701DE00F234A
:10093000FB18D2221A7018E00F23FB18D3221A706A
:1009400013E00F23FB18D4221A700EE00F23FB18BC
:10095000D5221A7009E00F23FB18C8221A7004E090
:100960000F23FB18D4221A70C0460F23FB181B78E4
:100970009AB2044B11001800034B9847C046BD467D
:1009800004B080BDB41A00201DD9000080B586B027
:1009900000AF0200FB1D1A703B1D0A1C1A80154B8C
:1009A0001B685A1C134B1A60124B1B6864225A4373
:1009B000114B1968114B1000984703007B611323FA
:1009C000FB187A691A701323FB181B789AB20C4B28
:1009D000110018000B4B98470B4B1B68FB60C0467F
:1009E000094B1A68FB68D31A312BF9D9C046BD46AA
:1009F00006B080BD3C19002078210020113701008D
:100A0000B41A00201DD90000B01A002080B582B0B1
:100A100000AF78601C4B9847031E31D1FA239A002F
:100A2000FA235B0011001800184B9847184B1A68FE
:100A3000184B1A60184B9B78122B10D004DC102B2B
:100A400007D0112B08D013E0132B0BD0A52B0CD003
:100A50000EE0124B98470BE0114B984708E0114B02
:100A6000984705E0104B984702E0104B9847C04666
:100A70007B681B7801229343DAB27B681A7000E02E
:100A8000C046BD4602B080BD51010000BD7B0000E4
:100A9000B01A0020901A0020180A0020750E0000DD
:100AA000110D0000990B0000B10A0000510F000069
:100AB00090B5C3B000AF012110202F4B98472F4BAA
:100AC0001B7910221343DAB22C4B1A713221052004
:100AD0002B4B98470823FF33FC182A4B18002A4B4E
:100AE000984703002370FA239A00FA235B00110051
:100AF0001800234B9847214B1B7910229343DAB2FD
:100B00001E4B1A71002110201B4B98471F4B84224B
:100B100052009446BC44634402221A701B4B842248
:100B200052009446BC44634413225A70174B8422EB
:100B300052009446BC4463440822FF32BA1812782B
:100B40009A70134B842252009446BC4463440F4A6B
:100B5000842149008C46BC44624412681A60C04635
:100B60003B00042118000B4B9847031EF8D1C046E8
:100B7000BD4643B090BDC0463108000008210020AA
:100B8000BD7B000014170020A5CB0000FCFEFFFF7A
:100B9000F8FEFFFF45020000B0B5C4B000AF012170
:100BA00010204F4B98474F4B1B7910221343DAB25A
:100BB0004C4B1A71322105204B4B98474B4B1A680E
:100BC0001023FF33FC184A4B11001800494B98477B
:100BD000030023701023FF33FB181B78002B0CD16C
:100BE000454BDB781A001023FF33FC183F4B434979
:100BF0003F48434DA84703002370FA239A00FA2385
:100C00005B0011001800384B9847364B1B791022B7
:100C10009343DAB2334B1A7100211020304B9847BE
:100C2000384B882252009446BC44634406221A7012
:100C3000344B882252009446BC44634412225A70BA
:100C4000304B882252009446BC4463441022FF3249
:100C5000BA1812789A70254B1B68DAB2294B882192
:100C600049008C46BC446344DA70204B1B681B0A65
:100C7000DAB2244B882149008C46BC4463441A7183
:100C80001A4B1B681B0CDAB21E4B882149008C469C
:100C9000BC4463445A71154B1B681B0EDAB2194BE6
:100CA000882149008C46BC4463449A71164B8822C3
:100CB0005200BA18D118134B88225200BA18D21811
:100CC0000B0003CA03C3C0463B1D082118000F4B8D
:100CD0009847031EF8D1C046BD4644B0B0BDC046DB
:100CE0003108000008210020BD7B000038190020D9
:100CF00014170020E1CB0000180A00201D0A002074
:100D000099C60000FCFEFFFFF4FEFFFF4502000055
:100D100090B5C3B000AF4A4BDB781A0049494A4B43
:100D200018004A4B9847464BDB780133464A00216E
:100D3000D15401211020464B9847464B1B79102275
:100D40001343DAB2434B1A7132210520424B9847C4
:100D50000823FF33FC183C49404B06221800404B47
:100D60009847030023700823FF33FB181B78082BD8
:100D700015D10823FF33FC183349384B02221800E1
:100D8000374B9847030023700823FF33FB181B7869
:100D9000002B0DD1314BDA68324B1A6008E0082382
:100DA000FF33FB181B78002B02D12E4B00221A6058
:100DB000FA239A00FA235B0011001800264B98478B
:100DC000244B1B7910229343DAB2224B1A71002173
:100DD00010201F4B9847244B842252009446BC4459
:100DE000634402221A70204B842252009446BC4471
:100DF000634411225A701C4B842252009446BC4416
:100E000063440822FF32BA1812789A70174B842272
:100E100052009446BC446344134A842149008C46E2
:100E2000BC44624412681A60C0463B0004211800AA
:100E30000F4B9847031EF8D1C046BD4643B090BD46
:100E4000180A00201D0A0020542100209B3B0100AD
:100E50003108000008210020BD7B0000141700208D
:100E60007DBE000038190020FCFEFFFFF8FEFFFFEA
:100E70004502000080B5C2B000AF2F4B8422520063
:100E80009446BC44634406221A702B4B84225200C1
:100E90009446BC44634410225A70284B1A79264B5E
:100EA000842149008C46BC4463449A70244B5B8B7C
:100EB0001B0A9BB2DAB2204B842149008C46BC4409
:100EC0006344DA701E4B5B8BDAB21B4B8421490002
:100ED0008C46BC4463441A71184B5A79164B8421D2
:100EE00049008C46BC4463445A71144B9A79124BA6
:100EF000842149008C46BC4463449A71114B84227E
:100F00005200BA18D2180C4B842149008C46BC44BC
:100F100063441000190008231A000B4B9847C04681
:100F20003B0008211800094B9847031EF8D1C04622
:100F3000BD4642B080BDC04600FFFFFF0821002033
:100F400010210020F8FEFFFF9B3B0100450200003E
:100F500080B5C2B000AF194B842252009446BC4405
:100F6000634401221A70154B842252009446BC44FB
:100F70006344A5225A70124B84225200BA18D11829
:100F80000E4B84225200BA18D2180B001188198017
:100F900092789A70C0463B1D03211800094B984770
:100FA000031EF8D1C046084B1B68002BFBD1074B32
:100FB00001221A70C046BD4642B080BD00FFFFFF4F
:100FC000FCFEFFFF45020000540200206D030020DC
:100FD00090B58FB002AF786039600123FB622B239C
:100FE000FB1800221A708A4B1B791A000223134047
:100FF00000D108E1874B98470823FB18864A1A60FE
:101000000823FB18834A5A600823FB18834ADA60D6
:101010000823FB18824A9A600823FB18814A1A6148
:101020000823FB18C02252005A610823FB188022B3
:1010300092009A61764B1B7908221343DAB2744B03
:101040001A7132210520784B98472A23FB18012278
:101050001A70764B00221A602923FB1800221A709E
:1010600083E0734B984780239A007249724B1800B3
:10107000724B98472A23FB181A787968704B0193B2
:101080000823FB1800931300002200206D4CA0479A
:101090000300FB62FB6A002B1FD12B23FB181A787D
:1010A0002B23FB1801321A702A23FB181B78012B03
:1010B00006D1654B7B602A23FB1802221A7005E0DB
:1010C000624B7B602A23FB1801221A702923FB182C
:1010D0002922BA1812781A7047E0FB6A0C2B1ED12D
:1010E0002A23FB181B78012B06D12A23FB18022286
:1010F0001A70554B7B6005E02A23FB1801221A70F9
:10110000524B7B602B23FB182B22BA1812781A70D3
:101110002923FB182922BA1812781A7025E02B23EC
:10112000FB181B78002B03D1404B00221A6009E00A
:101130002B23FB181B78012B04D1454B1B685A0845
:101140003A4B1A602923FB181A782923FB1801321D
:101150001A702B23FB182B22BA1812781A702A2324
:10116000FB182A22BA1812781A702B23FB181B7846
:10117000012B05D82923FB181B78022B00D870E718
:10118000FB6A9BB21800334B9847334B1B687B625A
:101190002823FB1800221A7019E02F4B1A687B6A6B
:1011A000D21A2823FB182821791809781970F423FA
:1011B000FF339A420BD9284B1B687B621C4B984724
:1011C0002823FB181A782823FB1801321A702823C9
:1011D000FB181B78092BE0D9204B984700210020F1
:1011E000114B98470A4B1B7908229343DAB2084BFC
:1011F0001A713B681B7808221343DAB23B681A70F5
:10120000174B00221A70FB6A1800BD460DB090BD46
:1012100008210020BD030000E98200004113000006
:101220006512000011040000BD7B00003C19002085
:1012300085080000280E0020040A0020757C0000AC
:101240008D090000655C0000081E002008200020B9
:1012500078210020A1080000B01A0020D14200002F
:101260006D03002090B589B000AF7860396000232D
:10127000FB6100237B611B23FB1800221A702C4B9F
:101280001B683B612B4B18002B4B984703007B617D
:101290007A693B689A422DDB1823FB1800221A80DA
:1012A00012E01823FB181B887A68D418214B180009
:1012B000224B98470300DBB223701823FB181A88CF
:1012C0001823FB1801321A801823FB181A887B692F
:1012D0009A42E6DB7B681B78012B1FD13B68013B00
:1012E0007A68D3181B78172B18D11B23FB180122FF
:1012F0001A7013E00E4B1B68FB60C0460C4B1A685B
:10130000FB68D31A012BF9D9094B1A683B69D31A28
:10131000C72B03D980239B01FB6104E01B23FB182F
:101320001B78002BAED0FB691800BD4609B090BDFC
:10133000B01A0020040A0020577D0000057D00003F
:1013400080B588B000AF786039600023FB6100236E
:10135000FB600023BB6100237B611F4B1B683B616B
:1013600031E01E4B98470300FB60FB68002B01D166
:10137000C0460CE0FA683B689A4202DB3B68BB61FE
:1013800005E0FB68BB613A68BB69D31A3B60BB6987
:10139000002B0ED07A687B69D318BA691100180047
:1013A0000F4B9847BB697A69D3187B610A4B1B685E
:1013B0003B61094B1A683B69D31A632B03D980231D
:1013C0009B01FB6103E0BA693B689A42C9DBFB6998
:1013D0001800BD4608B080BDB01A002011040000FE
:1013E0003504000080B586B000AF78604C4B1B68B8
:1013F000002B01D005238EE07B685B691422BA18AC
:101400009978DB781B020B4313807B685B693B6137
:101410001723FB1800221A7077E03B695B78042BD6
:1014200002D0052B20D060E03B695B79082B16D1F8
:101430003B699B79062B12D13B69DB79502B0ED18E
:101440001723FB1801221A703B699A78344B9A7162
:10145000334B00221A71324B00225A7145E0172398
:10146000FB1800221A7040E01723FB181B7801229A
:101470005340DBB2002B33D13B69FB60FB68DB7868
:10148000022B2FD17B689B7CFA6811001800254B3A
:10149000984703001A0001235340DBB2002B01D010
:1014A000042338E0FB689B785BB2002B04DAFB680E
:1014B0009A781B4B1A7103E0FB689A78184B5A71A3
:1014C000174B5B79002B0FD0154B1B79002B0BD0E2
:1014D000134B7A681A60124B0022DA7100231AE06B
:1014E000C04602E0C04600E0C0463B691B789AB2A5
:1014F0001423FB181421791809888A1A1A803B6969
:101500001B781A003B699B183B611423FB181B884E
:10151000002B82D101231800BD4606B080BDC04615
:1015200070030020B1F8000080B582B000AF786091
:10153000074B1A687B689A4205D1064B00221A7045
:10154000054B984700E0C046BD4602B080BDC0468E
:1015500070030020000000209915000080B582B0C3
:1015600000AF78600A4B1A687B689A420CD1084B2E
:1015700000221A60064B9B68002B06D0044B9B6828
:101580001800044B984700E0C046BD4602B080BD3D
:1015900070030020453B010090B585B002AF124BAF
:1015A0000022DA713B00A1221A703B00FE225A7021
:1015B0003B0000225A800C4B9B799AB23B009A80E8
:1015C0003B000122DA80084B1B68987C074A3900EF
:1015D000074B0193002300930123064CA047C0460C
:1015E000BD4603B090BDC0467003002077030020C5
:1015F000F9150000A9EF000090B583B000AF04001A
:1016000008001100FB1D221C1A70BB1D021C1A7061
:101610003B1D0A1C1A80BB1D1B78002B0ED13B1DE5
:101620001B88002B06D01A4BDB790133DAB2184B3A
:10163000DA710FE0164B0122DA710BE0BB1D1B784B
:10164000042B03D1124B0122DA7103E0114B01226A
:101650001A701AE00E4BDB791A0013005B009B181E
:101660009B0018000C4B984703001A00084B9A6027
:10167000074B9B68002B03D1064B01221A7004E034
:10168000064BFF225A73064B9847BD4603B090BDE8
:101690007003002000000020313B01000400002006
:1016A000A516000080B500AF0F4B5B7B0133DAB2AB
:1016B0000D4B5A730C4B5B7B18000C4B9847030087
:1016C0001A0001235340DBB2002B03D0084B012248
:1016D0001A7007E0074B1B6802225A72064B18006B
:1016E000064B9847BD4680BD04000020FD19000050
:1016F000000000207C030020011700004D1A0000AC
:1017000080B582B000AF0200FB1D1A70FB1D1B7874
:1017100001225340DBB2002B02D0054B984703E077
:10172000044B1800044B9847BD4602B080BDC0462C
:10173000A51600003D1700001D1C000080B582B0FA
:1017400000AF0200FB1D1A70024B9847C046BD4611
:1017500002B080BDA516000080B500AF024B1B781B
:10176000DBB21800BD4680BD0000002080B500AF90
:10177000054B1B68002B01D1002301E0024BDB79F4
:101780001800BD4680BDC0467003002080B582B001
:1017900000AF0200FB1D1A700A4BDB79FA1D1278AC
:1017A0009A4201D3002308E0064B9968FB1D1A7882
:1017B00013005B009B189B00CB181800BD4602B0BD
:1017C00080BDC0467003002080B582B000AF02002B
:1017D0003960FB1D1A70FB1D1B781800144B9847CD
:1017E00003001A0001235340DBB2002B01D0002379
:1017F0001AE0104B3A681A600F4B00229A600E4BA9
:1018000000221A730C4B06229A730C4B10220021F3
:1018100018000B4B9847084B0022DA73094B002144
:101820001800094B984701231800BD4602B080BD3F
:10183000FD190000D4030020040000201300002044
:10184000AD3B0100F91A0000551F000080B584B0BF
:1018500000AFB9607A6019000F23FB18021C1A70E0
:101860000E23FB180A1C1A700F23FB181B78180094
:10187000244B984703001A0001235340DBB2002B8E
:1018800001D000233AE0204BBA691A600E23FB18FE
:101890001A781E4B1B685B685A431D4B9A601C4BA1
:1018A00080221A731A4B0A229A731A4B10220021B3
:1018B0001800194B9847164B2822DA730823FB1897
:1018C000DA78134B5A740823FB189A78104B9A74E1
:1018D0000823FB185A780E4BDA740823FB181A7881
:1018E0000B4B1A750A4B0E22BA181278DA757A6801
:1018F0000A4B110018000A4B984701231800BD46F7
:1019000004B080BDFD190000D40300207C0300203A
:101910000400002013000020AD3B0100F91D000071
:10192000551F000080B584B000AFB9607A6019001F
:101930000F23FB18021C1A700E23FB180A1C1A70C6
:101940000F23FB181B781800244B984703001A003C
:1019500001235340DBB2002B01D000233AE0204B9F
:10196000BA691A600E23FB181A781E4B1B685B6855
:101970005A431D4B9A601C4B00221A731A4B0A22C1
:101980009A731A4B102200211800194B9847164BD6
:101990002A22DA730823FB18DA78134B5A740823C7
:1019A000FB189A78104B9A740823FB185A780E4B40
:1019B000DA740823FB181A780B4B1A750A4B0E229F
:1019C000BA181278DA757A680A4B110018000A4BB7
:1019D000984701231800BD4604B080BDFD190000E2
:1019E000D40300207C03002004000020130000200A
:1019F000AD3B0100511E0000551F000080B582B0B4
:101A000000AF0200FB1D1A700D4BDB79FA1D127836
:101A10009A4201D300230FE00A4BFA1D12785A7341
:101A2000074B9968FB1D1A7813005B009B189B00FD
:101A3000CA18054B1A6001231800BD4602B080BDCC
:101A400070030020040000207C03002080B582B0D9
:101A500000AF7860104B7A681A60104B24229A60AD
:101A60000E4B80221A730D4B06229A730C4B1022D8
:101A7000002118000B4B9847084B1222DA73074BD2
:101A80002422DA74084A094B11001800084B9847C1
:101A9000C046BD4602B080BDD40300200400002033
:101AA00013000020AD3B010088030020B51A0000A0
:101AB000551F000080B582B000AF0200FB1D1A70F8
:101AC000FB1D1B7801225340DBB2002B03D1084BD6
:101AD0009B68002B04D0074B1B680020984703E04D
:101AE000044B1B6801209847BD4602B080BDC0462C
:101AF000DC030020D403002080B582B000AF0200D8
:101B0000FB1D1A70FB1D1B7801225340DBB2002B1A
:101B100008D01A4B1B6801225A72194B1B6800200F
:101B2000984728E0174B1B7B002B08D0134B1B68F2
:101B300001225A72144B1800144B98471BE00F4BAC
:101B40001B685B7A002B12D00C4B1B685B7A032B53
:101B500009D10A4B1B6800225A72094B1B681800F6
:101B60000B4B984707E0054B1B6803225A72044B46
:101B70001B6801209847BD4602B080BD7C03002051
:101B8000D4030020DC030020951B0000A91E0000E8
:101B90001D1C000080B582B000AF1D4B9A78BB1DA4
:101BA0001A801B4B1B7B1B021AB2194B5B7B1BB2AF
:101BB00013431AB23B1D1A80154B1B781A007F2362
:101BC0001340702B1BD1BB1D1B88022B09D13B1D61
:101BD0001A88E8239B019A4203D10E4B1B6802220C
:101BE0005A72BB1D1B88062B09D13B1D1A88A023E6
:101BF0009B019A4203D1074B1B6803225A72064B82
:101C00001B6801209847C046BD4602B080BDC04653
:101C1000AC0300207C030020D403002080B582B0F8
:101C200000AF78600F4B7A681A600F4B08229A60F9
:101C30000D4B80221A730C4B0A229A730B4B102205
:101C4000002118000A4B9847074B2522DA73094AEE
:101C5000094B11001800094B9847C046BD4602B019
:101C600080BDC046D40300200400002013000020E3
:101C7000AD3B010080030020811C0000551F0000C7
:101C800080B582B000AF0200FB1D1A70FB1D1B78EF
:101C900001225340DBB2002B07D1124B1B7B002BE0
:101CA00003D1104B9B68002B08D00F4B1B680122FF
:101CB0005A720E4B18000E4B984710E00A4B1B68E7
:101CC0000C4A526812BA5A60074B1B68094A1268DC
:101CD00012BA1A60084B1B681800084B9847BD469B
:101CE00002B080BDDC0300207C030020011D000049
:101CF000A91E000080030020D4030020191D00004D
:101D000080B500AF034B1B6800209847C046BD4616
:101D100080BDC046D403002080B582B000AF78609B
:101D2000124B7A681A60124B10229A60104B802274
:101D30001A730F4B06229A730E4B102200211800C3
:101D40000D4B98470A4B1A22DA73094B1C225A741E
:101D5000074B1022DA74094A094B11001800094B8D
:101D60009847C046BD4602B080BDC046D40300209F
:101D70000400002013000020AD3B0100C003002040
:101D8000891D0000551F000080B582B000AF020021
:101D9000FB1D1A70FB1D1B7801225340DBB2002B88
:101DA00007D1114B1B7B002B03D10F4B9B68032BDF
:101DB00008D80E4B1B6800221A720D4B1B680120BD
:101DC00098470EE0094B1B680A4A9278110080225E
:101DD0000A40511E8A41D2B21A72054B1B6801207B
:101DE0009847BD4602B080BDDC0300207C03002084
:101DF000D4030020C003002080B582B000AF0200F1
:101E0000FB1D1A70FB1D1B7801225340DBB2002B17
:101E100007D10C4B1B7B002B03D10A4B9B68002B7B
:101E200008D0094B1B6801225A72084B1B6800201E
:101E3000984703E0054B1B6801209847BD4602B058
:101E400080BDC046DC0300207C030020D4030020BA
:101E500080B582B000AF0200FB1D1A70FB1D1B781D
:101E600001225340DBB2002B07D10C4B1B7B002B14
:101E700003D10A4B9B68002B08D0094B1B68012239
:101E80005A72084B1B680020984703E0054B1B68FB
:101E900001209847BD4602B080BDC046DC0300204B
:101EA0007C030020D403002080B582B000AF7860AE
:101EB000104B7A681A60104B12229A600E4B8022E7
:101EC0001A730D4B06229A730C4B10220021180036
:101ED0000B4B9847084B0322DA73074B1222DA7434
:101EE000084A094B11001800084B9847C046BD46E8
:101EF00002B080BDD80300200400002013000020A1
:101F0000AD3B0100AC030020111F0000551F000075
:101F100080B582B000AF0200FB1D1A70FB1D1B785C
:101F200001225340DBB2002B03D1074B9B68002BEF
:101F300004D0064B1B680020984702E0044B1B6846
:101F40009847BD4602B080BDDC030020D4030020CA
:101F5000D803002090B583B000AF786039600D4B96
:101F60007A681A600C4B3A681A600C4B5B685A1C12
:101F70000A4B5A60094B9A68084B9A60084B58798B
:101F8000084B06491F22084CA047C046BD4603B077
:101F900090BDC046D0030020EC03002004000020C8
:101FA00070030020AD1F00004522000090B585B0F1
:101FB00000AF0400080011003B60FB1D221C1A70DA
:101FC000BB1D021C1A707B1D0A1C1A707B1D1B781E
:101FD000002B10D07B1D1B78042B07D11B4B5B798A
:101FE0001B4A110018001B4B98472BE01A4B1B682B
:101FF0000020984726E0194B9A68184B9A60174BB7
:102000009B68002B02D1164B98471BE0134B1B7BA0
:102010005BB2002B05DA0F23FB180C4A12791A70F9
:1020200004E00F23FB18094A52791A700D4B196806
:102030000A4B9B689AB20C4C0F23FB1818782300AC
:102040000A4CA047BD4605B090BDC04670030020B5
:10205000CD210000B5220000D003002004000020A4
:1020600001210000EC030020712000004522000047
:1020700090B585B000AF0400080011003B60FB1D67
:10208000221C1A70BB1D021C1A707B1D0A1C1A70C0
:102090007B1D1B78002B21D07B1D1B78042B18D1B6
:1020A000114B1B7B5BB2002B05DA0F23FB180F4A89
:1020B00012791A7004E00F23FB180C4A52791A7037
:1020C0000B4A0F23FB181B7811001800094B984787
:1020D00007E0094B1B680020984702E0074B984730
:1020E000C046BD4605B090BD04000020700300202E
:1020F00001220000B5220000D003002001210000D1
:10210000B0B500AF044B1879044B05490D22054CBE
:10211000A047C046BD46B0BD700300202921000085
:10212000DC0300204522000090B583B000AF04001E
:10213000080011003B60FB1D221C1A70BB1D021C15
:102140001A707B1D0A1C1A707B1D1B78002B10D087
:102150007B1D1B78042B07D1154B1B79154A1100E9
:102160001800154B98471FE0144B1B680020984738
:102170001AE03B680D2B0AD1114B5A68114B5B6872
:102180009A4204D10E4B1B680F4A934204D00B4B6A
:102190001B680020984707E0094B9A68084B9A6033
:1021A000064B1B6801209847BD4603B090BDC04652
:1021B0007003002001220000B5220000D00300209F
:1021C000DC030020040000205553425390B583B037
:1021D00000AF040008001100FB1D221C1A70BB1D7B
:1021E000021C1A703B1D0A1C1A80044B1B6800203D
:1021F0009847C046BD4603B090BDC046D0030020FE
:1022000090B583B000AF040008001100FB1D221C34
:102210001A70BB1D021C1A703B1D0A1C1A80BB1DC4
:102220001B78002B04D0054B1B680020984701E069
:10223000034B9847BD4603B090BDC046D003002075
:102240000121000090B589B004AFB96011007B6036
:102250000F23FB18021C1A700C23FB180A1C1A808F
:10226000104B1B68987C0C23FB181B88BC680F2242
:10227000BA1811787A6802920B4A019200932300EF
:1022800000220A4CA04703001A0001235340DBB28E
:10229000002B03D0064B1B6800209847C046BD4664
:1022A00005B090BD70030020204E000049FB0000E7
:1022B000D003002090B587B002AF02003960FB1D4B
:1022C0001A700823FB1802221A700823FB18012237
:1022D0005A700823FB1800225A80FB1D1B789AB203
:1022E0000823FB189A800823FB180022DA800F4B82
:1022F0001B68987C0823F9183B680193002300931E
:10230000002300220A4CA04703001A000123534077
:10231000DBB2002B06D0054B1B68987C3B68002283
:1023200001219847C046BD4605B090BD700300200E
:10233000A9EF000080B582B000AF02003960FB1D3C
:102340001A70054B3A681A60044BFA1D12781A701D
:10235000C046BD4602B080BD1004002045190020D3
:1023600080B500AF024B9847C046BD4680BDC04611
:1023700005EF000080B582B000AF78607B68180080
:10238000024B9847C046BD4602B080BDD9EE000062
:1023900080B584B000AF02003960FB1D1A70FB1DD0
:1023A0001B78002B10D0274B01221A70264B0022DD
:1023B0005A61254B00229A74234B01211800234BAC
:1023C0009847234B984739E03A681F4B9A4202D10D
:1023D000204B00221A703B689B7CFF2118001E4B8B
:1023E00098470F23FB1800221A7011E00F23FB18E7
:1023F0001B781A4A1B01D31808331B683A6810006F
:1024000098470F23FB181A780F23FB1801321A7014
:102410000F23FB181B78002BE8D03B680021180025
:102420000A4B98473B68FF229A743B685B69002B14
:1024300004D03B685B691800094B9847C046BD460D
:1024400004B080BD0C040020F0030020D53601004C
:1024500065240000451900202DFA0000240000200A
:10246000453B010080B500AF034B1800034B984774
:10247000C046BD4680BDC0468124000075230000D3
:1024800080B500AF034B19001420034B9847C0469A
:10249000BD4680BD9D2400003523000080B500AFFF
:1024A000034B1800034B9847C046BD4680BDC0464D
:1024B000B92400007523000080B500AF064B984793
:1024C00003001A00054BDA74054B19006420054B14
:1024D0009847C046BD4680BDA9EE0000F00300202D
:1024E000E92400003523000090B585B002AF3B0021
:1024F00080221A703B0006225A703B008022520054
:102500005A803B0000229A803B000822DA8000219A
:102510000020144B984740210020134B984703009C
:102520001A0001235340DBB2002B03D004200F4BD1
:10253000984714E00E4A39000E4B01930023009394
:10254000122300200C4CA04703001A000123534023
:10255000DBB2002B03D00620044B9847C046BD4693
:1025600003B090BD2DFA0000CDF70000312F000020
:10257000F00300207D250000A9EF000090B583B096
:1025800000AF040008001100FB1D221C1A70BB1DC7
:10259000021C1A703B1D0A1C1A80BB1D1B78002BE5
:1025A00007D13B1D1B88072B03D90B4B5B78012BF5
:1025B0000AD0BB1D1B78012B01D1072300E00323A8
:1025C0001800064B984704E0054B19001420054BF2
:1025D0009847BD4603B090BDF0030020312F0000A6
:1025E000E92500003523000080B500AF034B18003B
:1025F000034B9847C046BD4680BDC0460526000037
:102600007523000080B500AF034B19006420034B15
:102610009847C046BD4680BD2126000035230000F6
:1026200090B585B002AF3B0000221A703B00052236
:102630005A703B0001225A801A4B01229A743B00C7
:1026400000229A803B000022DA8000210020164BF5
:102650009847144BDB7919000020144B984703006E
:102660001A0001235340DBB2002B03D00420104B8F
:10267000984714E00B4A39000E4B01930023009356
:10268000122300200C4CA04703001A0001235340E2
:10269000DBB2002B03D00620054B9847C046BD4651
:1026A00003B090BDF00300202DFA0000CDF700002C
:1026B000312F0000BD260000A9EF000090B583B0C7
:1026C00000AF040008001100FB1D221C1A70BB1D86
:1026D000021C1A703B1D0A1C1A80BB1D1B78002BA4
:1026E0000AD0BB1D1B78012B01D1072300E0032377
:1026F0001800054B984704E0044B19001420044BC4
:102700009847BD4603B090BD312F0000152700004B
:102710003523000090B585B002AF002100201D4B8D
:1027200098471D4BDB79190001201C4B984703008B
:102730001A0001235340DBB2002B03D00420184BB6
:10274000984724E03B0080221A703B0006225A7012
:102750003B00802252005A803B0000229A803B00BE
:102760001222DA800C4A39000E4B019300230093A9
:10277000122301200C4CA04703001A0001235340F0
:10278000DBB2002B03D00620054B9847C046BD4660
:1027900003B090BD2DFA0000F0030020CDF700003B
:1027A000312F0000AD270000A9EF000090B589B0DF
:1027B00002AF040008001100FB1D221C1A70BB1D93
:1027C000021C1A703B1D0A1C1A80BB1D1B78002BB3
:1027D00007D13B1D1B88122B03D1324B5B78012B99
:1027E0000AD0BB1D1B78012B01D1072300E0032376
:1027F00018002D4B984751E02A4B5B7C012B04D9E4
:102800001723FB1801221A7003E01723FB1801227B
:102810001A700920254B984703001A00214B5A6172
:10282000204B5B69002B03D106201F4B984735E0F6
:102830000C23FB1880221A700C23FB1806225A70F6
:102840001723FB181B789BB2013B9BB21BB2802263
:10285000920013431BB29AB20C23FB185A800C232C
:10286000FB1800229A800C23FB180922DA800D4BFA
:102870005A690C23F9180E4B019300230093092386
:1028800001200C4CA04703001A0001235340DBB287
:10289000002B03D00620044B9847C046BD4607B026
:1028A00090BDC046F0030020312F0000313B0100F5
:1028B000B9280000A9EF000090B589B002AF04006C
:1028C00008001100FB1D221C1A70BB1D021C1A708F
:1028D0003B1D0A1C1A801623FB1800221A80BB1D00
:1028E0001B78002B08D13B1D1B88092B04D1464BBC
:1028F0005B695B78022B0AD0BB1D1B78012B01D1D1
:10290000072300E003231800404B984779E03E4B33
:102910005B69DB791A004023134007D13A4B5B69AE
:102920001B7A9BB21622BA18DB1813801623FB18E9
:102930001A88FA235B009A4202DD354B984760E023
:10294000314B5B691422BA189978DB781B020B4370
:1029500013802D4B5A691323FB1852791A702A4B96
:102960005B6918002B4B98471423FB181B88180031
:10297000294B984703001A00234B5A61224B5B698D
:10298000002B03D10620214B98473AE00823FB187F
:1029900080221A700823FB1806225A701323FB1892
:1029A0001B789BB2013B9BB21BB280229200134367
:1029B0001BB29AB20823FB185A800823FB18002286
:1029C0009A800823FB181422BA181288DA800E4B5A
:1029D0005A691423FB1818880823F9180F4B019320
:1029E00000230093030001200D4CA04703001A00B0
:1029F00001235340DBB2002B03D00620034B984742
:102A0000C046BD4607B090BDF0030020312F000046
:102A100061230000453B0100313B0100252A0000F5
:102A2000A9EF000090B589B002AF040008001100C2
:102A3000FB1D221C1A70BB1D021C1A703B1D0A1CB8
:102A40001A801723FB1800221A70BB1D1B78002B5D
:102A500013D13B1D1B88082B0FD9414B5B695B7859
:102A6000022B0AD13E4B5B699A78DB781B02134339
:102A70009BB23A1D12889A420AD0BB1D1B78012BCB
:102A800001D1072300E003231800364B984763E089
:102A90001623FB1800221A7021E01623FB181A785F
:102AA000314B1201D3582E4A10009847031E02D012
:102AB000012B0CD004E01723FB1801221A7007E049
:102AC000FF210120294B9847294B984744E0C046F5
:102AD0001623FB181A781623FB1801321A701623D6
:102AE000FB181B78002BD8D01723FB181B7801226A
:102AF0005340DBB2002B02D01D4B98472CE00C2337
:102B0000FB1800221A700C23FB1809225A70144B70
:102B10005B695B799AB20C23FB185A800C23FB1873
:102B200000229A800C23FB180022DA800C23F9186B
:102B3000104B0193002300930023002201200E4C30
:102B4000A04703001A0001235340DBB2002B03D03F
:102B50000620044B9847C046BD4607B090BDC0460E
:102B6000F0030020312F0000240000202DFA000087
:102B7000612300007D2B0000A9EF000090B585B017
:102B800000AF040008001100FB1D221C1A70BB1DC1
:102B9000021C1A703B1D0A1C1A80BB1D1B78002BDF
:102BA00003D13B1D1B88002B26D00F23FB180022CE
:102BB0001A7011E00F23FB181B78264A1B01D3184B
:102BC00008331B68244A100098470F23FB181A7813
:102BD0000F23FB1801321A700F23FB181B78002BF0
:102BE000E8D0BB1D1B78012B01D1072300E0032394
:102BF00018001A4B98472AE00E23FB1800221A707F
:102C000011E00E23FB181B78124A1B01D318043362
:102C10001B68114A100098470E23FB181A780E23E0
:102C2000FB1801321A700E23FB181B78002BE8D01A
:102C3000094B5A8880239B009A4202D9084B984737
:102C400005E0054B00229A61064B00221A70BD4632
:102C500005B090BD24000020F0030020312F0000BB
:102C60000D2D00000C04002090B587B002AF0200CB
:102C70003960BB1D1A80BB1D1B8818001F4B98476D
:102C800003001A001E4B9A611D4B9B69002B03D158
:102C900006201C4B98472EE00823FB1880221A7050
:102CA0000823FB1806225A700823FB18F022120191
:102CB0005A800823FB1800229A800823FB18BA1DAB
:102CC0001288DA800E4B9A69BB1D18880823F91800
:102CD0003B68019300230093030001200A4CA047A6
:102CE00003001A0001235340DBB2002B03D006205F
:102CF000044B9847C046BD4605B090BD313B01002E
:102D0000F0030020312F0000A9EF000080B500AFD4
:102D1000034B19000520034B9847C046BD4680BDB4
:102D2000292D0000692C000090B585B000AF04008B
:102D300008001100FB1D221C1A70BB1D021C1A701A
:102D40003B1D0A1C1A80BB1D1B78042B08D1254B88
:102D50009B691800244B9847224B00229A613AE065
:102D6000BB1D1B78002B08D13B1D1B88052B04D1F4
:102D70001C4B9B695B780F2B0AD0BB1D1B78012B6A
:102D800001D1072300E003231800184B984725E0E2
:102D9000BB1D1B78002B1ED1124B9B690E22BA184B
:102DA0009978DB781B020B4313800E4B9B6918004C
:102DB0000D4B98470B4B00229A610E23FB181B8882
:102DC0000C2B08D90A4A0E23FB181B881100180087
:102DD000084B984702E0084B00221A70BD4605B028
:102DE00090BDC046F0030020453B0100312F00009C
:102DF000FD2D0000692C00000C04002090B587B068
:102E000000AF040008001100FB1D221C1A70BB1D3E
:102E1000021C1A703B1D0A1C1A80BB1D1B78042B58
:102E200008D13F4B9B6918003E4B98473C4B002212
:102E30009A616EE0BB1D1B78002B13D13B1D1B88D4
:102E40000B2B0FD9364B9B695B780F2B0AD1344B78
:102E50009B699A78DB781B0213439BB23A1D128858
:102E60009A420AD0BB1D1B78012B01D1072300E039
:102E7000032318002C4B98474EE0BB1D1B78002BFA
:102E800047D1274B9B697B611323FB1800221A70E3
:102E900025E07B691B781A007B699B187B617B6945
:102EA000FB60FB685B78102B12D1FB689B78022BD0
:102EB0000ED1FB68DA78197909020A4359790904B5
:102EC0000A439B791B0613431A00022313400FD1B8
:102ED0001323FB181A781323FB1801321A70104BB6
:102EE0009B691B791322BA1812789A42D1D300E059
:102EF000C0460B4B9B691B791322BA1812789A4271
:102F000007D3074B9B691800064B9847044B0022D8
:102F10009A61064B00221A70BD4607B090BDC046AC
:102F2000F0030020453B0100312F00000C0400207D
:102F300080B582B000AF0200FB1D1A70FB1D1B782C
:102F4000072B03D1154B00221A7024E0144B9B7CF5
:102F5000FF211800134B9847114B5B69002B07D0DA
:102F60000F4B5B691800104B98470D4B00225A61BC
:102F70000B4B00229A74094B1B785A1CD1B2074A9A
:102F80001170032B02D8094B984704E0084B98476F
:102F9000024B00221A70BD4602B080BD0C04002016
:102FA000F00300202DFA0000453B010065240000DD
:102FB0006123000090B589B002AF0200FB1D1A70BA
:102FC0001B4B7B617B695B69DB791A002023134013
:102FD00028D0FB1D1B78002B04D00C23FB180322E8
:102FE0005A7003E00C23FB1801225A700C23FB18C3
:102FF00000221A700C23FB1801225A800C23FB18A4
:1030000000229A800C23FB180022DA807B69987CCE
:103010000C23F918002301930023009300230022BE
:10302000044CA047C046C046BD4607B090BDC04650
:10303000F0030020A9EF000080B582B000AF0200CD
:10304000FB1D1A70FB1D1B78002B03D1074B9B7CCB
:10305000FF2B07D0054AFB1D1B7811001800044BFD
:10306000984700E0C046BD4602B080BDF003002096
:103070009123000080B584B000AF0200FB1D1A70E0
:103080000F23FB1800221A701CE00F23FB181B787B
:103090001D4A1B01D3180C331B68002B0BD00F23C8
:1030A000FB181B78184A1B01D3180C331B68FA1D38
:1030B0001278100098470F23FB181A780F23FB187B
:1030C00001321A700F23FB181B78002BDDD0FB1D7B
:1030D0001B7801225340DBB2002B10D00B4B1B7826
:1030E000002B0CD0094B1B78013BDAB2074B1A704E
:1030F000064B1B78002B02D1054B1B689847C04636
:10310000BD4604B080BDC046240000204519002003
:103110001004002080B500AF0020024B9847C04645
:10312000BD4680BDB52F000080B500AFC046BD468E
:1031300080BD000080B500AF054BFF229A74054B9F
:1031400000221A70044B9847C046BD4680BDC04659
:10315000F00300204519002041ED000080B582B049
:1031600000AF78607B6800221A70C046BD4602B08E
:1031700080BD000080B582B000AF02003960FB1D49
:103180001A70FB1D1B78012B0AD0022B0FD0002BCD
:1031900014D10E4B0D4A91693A680A439A610FE0C7
:1031A0000A4B0A4AD1693A680A43DA6108E0074BD8
:1031B000064A116A3A680A431A6201E0172300E0DE
:1031C00000231800BD4602B080BDC0460004004088
:1031D00080B582B000AF0200FB1D1A70064BFA1DCD
:1031E000127811001F220A40012191400A001A6042
:1031F000C046BD4602B080BD00E100E080B582B0AF
:1032000000AF0F4B3B6000237B6011E07B689B00AD
:1032100008229446BC446344083B1B685B78DBB2DD
:103220005BB2002B01DA012306E07B6801337B608F
:103230007B68002BEAD000231800BD4602B080BD99
:103240000018004080B584B000AF2D4B7B6040215A
:1032500000202C4B98473B0018002B4B98473B0015
:1032600000221A703B0019000520284B98470520C2
:10327000274B98470023FB6018E0FB689B00102257
:103280009446BC4463440C3B1A68FB689B001021C5
:103290008C46BC4463440C3B1B681B78DBB20121A9
:1032A0000B43DBB21370FB680133FB60FB68002B40
:1032B000E3D0C046174B9847031EFBD10B23FB18E6
:1032C00000221A700DE00B23FB181A78124B9200A3
:1032D0000021D1500B23FB181A780B23FB18013265
:1032E0001A700B23FB181B780F2BECD904200B4B07
:1032F00098470B4B9847C046BD4604B080BDC046BA
:1033000000180040753100005D310000792B01008C
:10331000BD2B0100FD31000048190020D131000013
:103320002533000080B582B000AF154B3B60002311
:103330007B6018E07B689B0008229446BC44634491
:10334000083B1A687B689B0008218C46BC44634498
:10335000083B1B681B78DBB202210B43DBB2137006
:103360007B6801337B607B68002BE3D0C046054B54
:103370009847031EFBD1C046BD4602B080BDC04683
:1033800000180040FD31000080B582B000AF7860C9
:103390007B6800221A70C046BD4602B080BD0000A6
:1033A00080B582B000AF02003960FB1D1A70FB1DB2
:1033B0001B78012B0AD0022B0FD0002B14D10E4BFF
:1033C0000D4A91693A680A439A610FE00A4B0A4A2A
:1033D000D1693A680A43DA6108E0074B064A116A84
:1033E0003A680A431A6201E0172300E0002318003C
:1033F000BD4602B080BDC0460004004080B584B028
:1034000000AF78607B681B68FB60FB689B7ADBB26F
:103410005BB2002B01DA012300E000231800BD4657
:1034200004B080BD80B584B000AF78607B681B6855
:10343000FB60C0467B681800074B9847031EF9D114
:10344000FB681B889BB2022213439AB2FB681A8066
:10345000C046BD4604B080BDFD33000080B584B0D9
:1034600000AF78607B681B68FB60C0467B68180013
:103470000A4B9847031EF9D1FB68C1229A71FB6879
:10348000C1221A72FB681B889BB2022293439AB234
:10349000FB681A80C046BD4604B080BDFD33000005
:1034A00080B584B000AF78607B681B68FB607B6888
:1034B00018000A4B9847C0467B681800084B98478D
:1034C000031EF9D1FB681B889BB2012213439AB2F9
:1034D000FB681A80C046BD4604B080BD5D34000064
:1034E000FD33000080B584B000AF786039603B6880
:1034F000DB881A007B68DB88D31A9B06FB603B687D
:103500005B799B051A00FB681343FB603B681B79E2
:103510005B041A00FB681343FB603B689B781B034A
:103520001A00FB681343FB607B681B790122534040
:10353000DBB2002B08D03B68DB78002B04D0FB68A3
:10354000802252021343FB603B685B789B011A00A8
:10355000FB681343FB603B681B781A00FB6813434E
:10356000FB60FB681800BD4604B080BD80B584B028
:1035700000AFF860B9607A60BB689B0E9AB2FB68D6
:10358000DB88D3189AB27B68DA80BB689B0DDBB20C
:103590000F221340DAB27B685A71BB685B0CDBB256
:1035A0001F221340DAB27B681A71FB681B79002B6B
:1035B00008D0BB681B0BDBB21F221340DAB27B685A
:1035C0009A7010E0BB681B0BDBB20F221340DAB21B
:1035D0007B689A70BA6880235B0213405A1E93413D
:1035E000DAB27B68DA70BB689B09DBB23F2213401A
:1035F000DAB27B685A70BB68DBB23F221340DAB2A2
:103600007B681A70C046BD4604B080BD80B584B0EA
:1036100000AF786039607B681B68BB603B681A88C4
:103620000E23FB1808210A431A803B681B790122EC
:103630005340DBB2002B07D00E23FB180E22BA1822
:10364000128840210A431A803B689B78002B07D0E0
:103650000E23FB180E22BA18128880210A431A8002
:10366000BB680E22BA1812881A803B68DB78002BE0
:1036700008D0BB685B889BB28022D20113439AB208
:10368000BB685A800D23FB1800221A7017E00D2327
:10369000FB181A7813009B009B185B0008333A68EC
:1036A000D1180D23FB181A787B681800084B98472F
:1036B0000D23FB181A780D23FB1801321A700D2305
:1036C000FB181B78002BE2D0C046BD4604B080BD7D
:1036D000F537000080B586B000AFF860B9607A6059
:1036E000FB68BA681A6020210020184B9847142301
:1036F000FB181800164B98471423FB1802221A7067
:103700001423FB1819000420124B98470420124B75
:103710009847FB681800114B98477B681A79FB683B
:103720001A717B68DA78FB685A717B68DA88FB6803
:10373000DA800B4BFA681A607A68FB68110018008F
:10374000084B9847C046BD4606B080BDA133000077
:1037500089330000792B0100BD2B0100A13400004A
:10376000881900200D36000080B584B000AF786065
:1037700039607B681B68FB607B685B790122534082
:10378000DBB2002B0AD0FB68164A5A80C0467B6821
:103790001800154B9847031EF9D116E0FB685B88AB
:1037A0009BB21A008023DB0113400ED1FB685B88BB
:1037B0009BB20E4A13439AB2FB685A80C0467B689C
:1037C0001800094B9847031EF9D1FB681B69BB60C1
:1037D0003A68B9687B681800054B9847C046BD46F3
:1037E00004B080BD0080FFFFFD33000000C0FFFF7C
:1037F0006D35000080B586B000AFF860B960FB1D84
:103800001A70FB681B687B61FB1D1B78012B01D9BB
:10381000172321E0BA68FB6811001800104B984785
:1038200003003B61C046FB6818000E4B9847031E1F
:10383000F9D1FB1D1A787B690332D2003969D15066
:10384000FB1D1B78BA68117A7A690333DB00D31841
:1038500004330A1C1A7000231800BD4606B080BD50
:10386000E5340000FD33000080B582B000AF786021
:1038700039607A683B689A4201DA7B6800E03B680D
:103880001800BD4602B080BD80B586B000AFF860BC
:10389000B9607A603B60114B1B68DB68B968FA68F5
:1038A0001000984703007B617B69002B08D10B4B0C
:1038B0001B689B6839687A681000984703007B6131
:1038C0007B69002B04D07B698022920113437B61CA
:1038D0007B691800BD4606B080BDC04614040020B8
:1038E00090B58D4CA54402AF02008C4B8420C000E3
:1038F0008446BC4463441A70894B8422D2009446A7
:10390000BC4463440A1C1A80864BFB1800221A80B0
:103910008223DB00FB1800221A80834B8422D20012
:103920009446BC44634400221A7000237F4ABA18AC
:1039300013607A4B8422D2009446BC4463441B78C3
:103940003F2B00D9DCE0754B8422D2009446BC4466
:1039500063441A78764B9200D358002B00D08EE047
:10396000744BFC188323DB00FA1884239B00F9189E
:103970006A4B8420C0008446BC446344187823000A
:103980006D4CA0470300694ABA181360674BFB18D7
:103990001B68002B12D18323DB00FB181B68190066
:1039A000644BFB181B681022BA188420800038185A
:1039B000624CA04703005D4ABA1813605B4BFB18CA
:1039C0001B68002B13D15B4BFB1819688223DB00AB
:1039D000FC18544BFA181023F8180F23FB18009307
:1039E0002300574CA0470300504ABA1813604E4BAF
:1039F0008422D2009446BC4463441B78002B0DD033
:103A0000494B8422D2009446BC4463441B781A007C
:103A10008023DB011343454ABA181360434BFB185C
:103A20001B68002B2BD1404B8422D2009446BC440F
:103A300063441B78002B14D1384B8422D200944667
:103A4000BC4463441A78374BFB181B881B04822143
:103A5000C900791809885B181900354B9200D150BC
:103A60000DE0314B8422D2009446BC4463441B7861
:103A70001A008023DB0113432C4ABA1813602B4B26
:103A8000FB181B68002B3FD1244B8422D2009446A4
:103A9000BC4463441A78264B9200D3581B0C9AB24C
:103AA000204BFB181A801D4B8422D2009446BC4444
:103AB00063441A781E4B9200D3589AB28223DB00DB
:103AC000FB181A80174BFB181B88154A8421C90064
:103AD0008C46BC44624412889A420CD38223DB0099
:103AE000FB181B880E4A8421C9008C46BC446244E2
:103AF00012889A4208D90A230C4ABA18136003E0C4
:103B000009230A4ABA181360084BFB181B681800EF
:103B1000BD460C4B9D4490BDD4FBFFFFE7FBFFFF70
:103B2000E4FBFFFF12040000EFFBFFFF1C0400009A
:103B30008C19002014040000096600008938000078
:103B4000716600002404000090B5964CA54402AFB5
:103B5000F860B9603B60944B8621C9008C46BC4438
:103B600063441A7080235B02904ABA181360FF23E3
:103B70001B048422D200BA18136000238C4ABA189E
:103B8000136000238322D200BA1813600023894AED
:103B9000BA181360884B8622D2009446BC44634412
:103BA00000221A70854B8622D2009446BC4463449E
:103BB00000221A70824BFA681A600023814ABA18F0
:103BC00013600DE0804B7F4ABA1812689200002102
:103BD000D1507C4BFB181B6801337A4ABA1813602A
:103BE000784BFB181B683F2BECD9754B1B681B6887
:103BF000984703008522D200BA1813608523DB00A2
:103C0000FB181B68002B0AD08523DB00FB181B6800
:103C10008022920113438522D200BA1813608523B3
:103C2000DB00FB181B68002B12D18823DB00FB187C
:103C30001B688322D200BA185D497918852080005C
:103C40003818624CA04703008522D200BA181360CE
:103C50008523DB00FB181B68002B13D1544BFB188A
:103C60001B6819008323DB00FB181B681422BA1899
:103C7000852080003818564CA04703008522D200CA
:103C8000BA1813608523DB00FB181B68002B17D1C3
:103C90008323DB00FB1819681323FC18454BFA1823
:103CA0001423F8181223FB1801933B680093230098
:103CB000484CA04703008522D200BA1813601CE0CC
:103CC0008323DB00FB181B6819001223FA18142346
:103CD000FB181800404B9847031E0ED1374B862225
:103CE000D2009446BC4463441B781A008023DB0155
:103CF00013438522D200BA1813608523DB00FB181A
:103D00001B68002B44D12D4B8622D2009446BC4424
:103D100063441B78002B0ED0284B8622D200944699
:103D2000BC4463441B781A008023DB0113438522C3
:103D3000D200BA1813601F4BFB181B68BA689A426E
:103D40000FD11D4B8622D2009446BC4463441B789D
:103D5000154A8621C9008C46BC44624412789A42B6
:103D600005D006238522D200BA18136010E03B6804
:103D70001B688422D200BA1812681A400B4BFB1839
:103D80001B689A4204D007238522D200BA18136018
:103D90008523DB00FB181B681800BD460F4B9D44B4
:103DA00090BDC046C4FBFFFFD7FBFFFF240400000B
:103DB0001C04000014040000E3FBFFFFE2FBFFFF14
:103DC000140400202C0400008C190020596100000C
:103DD0008938000085620000F16B000034040000A7
:103DE00090B5874CA54402AFF860B9603B60854B45
:103DF0008521C9008C46BC4463441A700023824A62
:103E0000BA18136000238322D200BA18136000236B
:103E10007E4ABA1813607E4B8522D2009446BC4479
:103E2000634400221A707B4B8522D2009446BC4426
:103E3000634400221A70784BFA681A600023774AAC
:103E4000BA1813600DE0764B744ABA1812689200E3
:103E50000021D150714BFB181B6801336F4ABA180F
:103E600013606E4BFB181B683F2BECD96A4B1B6829
:103E70001B68984703008422D200BA181360842379
:103E8000DB00FB181B68002B0AD08423DB00FB1827
:103E90001B688022920113438422D200BA18136057
:103EA0008423DB00FB181B68002B12D18723DB0067
:103EB000FB181B688322D200BA1853497918852051
:103EC00080003818574CA04703008422D200BA184B
:103ED00013608423DB00FB181B68002B13D14A4BB3
:103EE000FB181B6819008323DB00FB181B681422D6
:103EF000BA188520800038184B4CA0470300842254
:103F0000D200BA1813608423DB00FB181B68002B57
:103F100017D18323DB00FB1819681323FC183B4BD4
:103F2000FA181423F8181223FB1801933B68009326
:103F300023003E4CA04703008422D200BA1813602D
:103F40001CE08323DB00FB181B6819001223FA18FE
:103F50001423FB181800364B9847031E0ED12D4B27
:103F60008522D2009446BC4463441B781A00802307
:103F7000DB0113438422D200BA1813608423DB00D0
:103F8000FB181B68002B32D1224B8522D2009446AD
:103F9000BC4463441B78002B0ED01E4B8522D200FC
:103FA0009446BC4463441B781A008023DB0113430E
:103FB0008422D200BA181360144BFB181B68BA682D
:103FC0009A420FD1124B8522D2009446BC446344DE
:103FD0001B780C4A8521C9008C46BC446244127887
:103FE0009A4204D006238422D200BA181360842394
:103FF000DB00FB181B681800BD460E4B9D4490BDAE
:10400000CCFBFFFFDFFBFFFF1C04000014040000DB
:10401000EBFBFFFFEAFBFFFF140400202404000079
:104020008C1900200D6200008938000085620000B4
:10403000F16B00002C04000090B5514CA54402AF78
:10404000B9607A604F4B8422D2009446BC446344EA
:10405000021C1A7000238322D200BA1813600023B6
:10406000494ABA181360494B8422D2009446BC4492
:10407000634400221A70444BFC188323DB00FA18B7
:1040800085239B00F9183F4B8420C0008446BC4424
:104090006344187823003E4CA04703003D4ABA18F9
:1040A00013603C4BFB181B68002B12D18323DB00F1
:1040B000FB181B681900344BFB181B681422BA1834
:1040C000852080003818344CA0470300314ABA18C4
:1040D0001360304BFB181B68002B11D12A4BFB18C7
:1040E00019687C68BA681423F8181323FB18009326
:1040F00023002A4CA0470300264ABA1813601AE08E
:10410000214BFB181B6819001323FA181423FB1802
:104110001800234B9847031E0DD11C4B8422D2005C
:104120009446BC4463441B781A008023DB0113438C
:10413000184ABA181360174BFB181B68002B16D1CE
:10414000124B8422D2009446BC4463441B78002B5B
:104150000DD00E4B8422D2009446BC4463441B789D
:104160001A008023DB0113430A4ABA181360094B73
:10417000FB181B681800BD460A4B9D4490BDC04605
:10418000D4FBFFFFEFFBFFFF14040000F3FBFFFF76
:10419000916700001C04000089380000F9670000E6
:1041A000F16B00002404000090B5404CA54400AF22
:1041B00002003F4B8321C9008C46BC4463441A7003
:1041C00000238222D200BA1813600023394ABA1899
:1041D0001360394B8322D2009446BC4463440022CE
:1041E0001A70344BFC188223DB00FA1883239B00DF
:1041F000F9182F4B8320C0008446BC4463441878D0
:1042000023002E4CA04703002D4ABA1813602C4BF4
:10421000FB181B68002B12D18223DB00FB181B68E4
:104220001900244BFB181B680C22BA18832080004D
:104230003818244CA0470300214ABA181360204BB9
:10424000FB181B68002B0DD11A4BFB1819680B23A8
:10425000FA180C23FB1818001B4B98470300184A48
:10426000BA181360164BFB181B68002B16D1124BA3
:104270008322D2009446BC4463441B78002B0DD0AB
:104280000D4B8322D2009446BC4463441B781A0031
:104290008023DB0113430A4ABA181360084BFB184A
:1042A0001B681800BD46094B9D4490BDE4FBFFFF11
:1042B000EFFBFFFF0C040000F3FBFFFF4968000069
:1042C0001404000089380000A16800001C040000EC
:1042D00090B5384CA54400AF80239B00FA18812389
:1042E0009B00F9183B001800334B984703008322CA
:1042F0009200BA18136083239B00FB181B68002BE5
:104300004BD12E4B1B6882229200BA1813602C4BA3
:104310001B68DB6881229200BA18126811003A000B
:1043200010009847030083229200BA18136008E037
:10433000224B1A6882239B00FB181B68D31A642B3C
:104340000AD81F4B1B689C691D4B1B681B6998474B
:1043500003009C42ECD100E0C04683239B00FB1885
:104360001B68002B08D1164B1B685B68984703003D
:1043700083229200BA18136083239B00FB181B68EA
:10438000002B0AD083239B00FB181B68802292011C
:10439000134383229200BA181360094B00221A605B
:1043A00083239B00FB181B681800BD4685239B00D8
:1043B0009D4490BDECFDFFFF0D630000B01A00208E
:1043C0001404002090B58DB002AFF86008007A6048
:1043D00019000A23FB18021C1A800823FB180A1C68
:1043E0001A801F23FB1800221A700023BB610023D0
:1043F0007B612223FB1807221A80364B1B685B69FE
:104400009AB22223FB181B88D31A9BB21A000A23E4
:10441000FB181B88190010002F4B9847020020231F
:10442000FB181A8000237B6240E07B681B881A001F
:10443000FB6898181823FC18BA6B2023FB181988FE
:104440001423FB1800932300244CA04703007B6235
:104450007B6A002B08D1BB6919007B69FA6BB86BCA
:104460001F4CA04703007B627B6A002B08D179694F
:104470001F23FA18FB6B18001A4B984703007B6246
:104480001F23FB181B78002B07D01F23FB181B785A
:104490001A008023DB0113437B627B681A88202388
:1044A000FB181B88D3189AB27B681A807B6A002B92
:1044B0000AD10A23FB181B887A6812889A1A0823E3
:1044C000FB181B889A42B0DC7B6A1800BD460BB013
:1044D00090BDC0461404002069380000E166000069
:1044E000893800006967000090B5834CA54404AF8B
:1044F00004000800BA601900804B8522D20094465F
:10450000BC446344221C1A707D4B8522D200944621
:10451000BC446344021C1A807A4B8522D200944624
:10452000BC4463440A1C1A800A238422D200BA18AD
:104530001360754B8522D2009446BC44634400222C
:104540001A80724B8522D2009446BC4463440022F8
:104550001A7000236E4ABA181360684B8522D20085
:104560009446BC4463441B783F2B15D8644B85228A
:10457000D2009446BC4463441A88604B8521C9002C
:104580008C46BC4463441B7811001800614B98476B
:1045900003005F4ABA1813605D4BFB181B68002BC1
:1045A00022D15D4B1B685B699AB28423DB00FB1848
:1045B0001B689BB2D31A9CB21223FA18514B852167
:1045C000C9008C46BC4463441988B8681C23FB1896
:1045D000019387239B00FB18009323004F4CA047B7
:1045E00003004B4ABA181360494BFB181B68002B99
:1045F00000D078E0444B8522D2009446BC4463440A
:104600001A88474BFB183F498520C0008446BC44AC
:10461000614409888A1A1A803B4B8522D20094464D
:10462000BC4463441B881A00BB689A183C4BFB18B7
:104630001C88334B8521C9008C46BC4463441988CF
:104640002E4B8520C0008446BC4463441878142354
:10465000FB1802931823FB18019387239B00FB1878
:10466000009323002F4CA0470300294ABA18136077
:10467000274BFB181B68002B0DD1BB6919007B6908
:104680001C22BA18872080003818274CA047030046
:104690001F4ABA1813601E4BFB181B68002B0BD166
:1046A00079691123FA181C23FB1818001F4B98472F
:1046B0000300174ABA181360144B8522D20094469F
:1046C000BC4463441B78002B0DD0104B8522D200D4
:1046D0009446BC4463441B781A008023DB011343D7
:1046E0000B4ABA1813600A4BFB181B681800BD462A
:1046F0000F4B9D4490BDC046C4FBFFFFE7FBFFFF8F
:10470000E4FBFFFFDEFBFFFFEAFBFFFFE9FBFFFF30
:1047100024040000E138000014040020C543000018
:104720001E0400004163000089380000ED630000B2
:104730002C04000090B5534CA54402AF0200524B2C
:104740008320C0008446BC4463441A704F4B8322CC
:10475000D2009446BC4463440A1C1A8000233B6187
:104760000023FB604A4B8322D2009446BC4463443E
:1047700000221A700023474ABA181360424B832262
:10478000D2009446BC4463441B783F2B15D83F4B62
:104790008322D2009446BC4463441A883A4B832156
:1047A000C9008C46BC4463441B78110018003A4B86
:1047B00098470300374ABA181360364BFB181B683A
:1047C000002B1CD11023FC1885239B00FA182F4BBB
:1047D0008321C9008C46BC44634419882A4B83203A
:1047E000C0008446BC44634418780C23FB18009333
:1047F00023002A4CA0470300264ABA181360254B11
:10480000FB181B68002B0DD13B691900FB681422B3
:10481000BA18852080003818214CA04703001D4A93
:10482000BA1813601B4BFB181B68002B0BD1F968DF
:104830000B23FA181423FB1818001A4B984703008F
:10484000144ABA181360124B8322D2009446BC4417
:1048500063441B78002B0DD00D4B8322D20094466D
:10486000BC4463441B781A008023DB011343094ACC
:10487000BA181360074BFB181B681800BD460A4B9B
:104880009D4490BDDCFBFFFFEFFBFFFFECFBFFFF58
:10489000F3FBFFFF14040000E1380000E1640000B6
:1048A00089380000556500001C04000090B56A4C72
:1048B000A54402AF040008001100684B8322D20017
:1048C0009446BC446344221C1A70654B8322D20078
:1048D0009446BC446344021C1A80624B8322D2007B
:1048E0009446BC4463440A1C1A7000233B610023B5
:1048F000FB605D4B8322D2009446BC44634400229B
:104900001A705A4B8322D2009446BC44634400225E
:104910001A700023564ABA181360504B8322D200F3
:104920009446BC4463441B783F2B15D84C4B8322E0
:10493000D2009446BC4463441A88484B8321C90082
:104940008C46BC4463441B7811001800494B9847BF
:104950000300474ABA181360454BFB181B68002B2D
:104960001CD11023FC1885239B00FA183C4B832193
:10497000C9008C46BC4463441988384B8320C0006E
:104980008446BC44634418780C23FB18009323002E
:10499000394CA0470300364ABA181360344BFB1851
:1049A0001B68002B0DD13B691900FB681422BA1853
:1049B000852080003818314CA04703002C4ABA18D3
:1049C00013602B4BFB181B68002B0CD1F9680A23D2
:1049D000FB180B22BA1814203818294CA0470300E2
:1049E000234ABA181360214B8322D2009446BC4458
:1049F00063441B78002B0DD01C4B8322D2009446BD
:104A0000BC4463441B781A008023DB011343184A1B
:104A1000BA181360164BFB181B68002B13D1124BEE
:104A20008322D2009446BC4463441B780D4A832100
:104A3000C9008C46BC44624412789A4203D00823D1
:104A40000B4ABA1813600A4BFB181B681800BD46C6
:104A50000C4B9D4490BDC046DCFBFFFFEFFBFFFF0E
:104A6000ECFBFFFFEEFBFFFFF3FBFFFFF2FBFFFFA3
:104A700014040000E13800001564000089380000CB
:104A8000996400001C04000090B53C4CA54400AFA4
:104A90000023BB6000237B60394B8222D200944606
:104AA000BC44634400221A70364B8222D2009446E2
:104AB000BC44634400221A703A1D0823F91883236A
:104AC0009B00FB181800304B984703002F4ABA1878
:104AD00013602E4BFB181B68002B0DD1BB6819000F
:104AE0007B680C22BA18832080003818284CA04715
:104AF0000300264ABA181360244BFB181B68002BCE
:104B00000AD17968BB1CFA1C0C203818214CA0472C
:104B100003001E4ABA1813601A4B8222D200944630
:104B2000BC4463441B78002B0DD0164B8222D2006C
:104B30009446BC4463441B781A008023DB01134372
:104B4000124ABA181360114BFB181B68002B0CD1CA
:104B50000B4B8222D2009446BC4463441B78002B4A
:104B600003D10823094ABA181360084BFB181B68C5
:104B70001800BD46084B9D4490BDC046ECFBFFFFAE
:104B8000F3FBFFFFF2FBFFFF7D6500000C0400005C
:104B900089380000C16500001404000090B56C4C19
:104BA000A54404AFF860B9606A4B8621C9008C4601
:104BB000BC4463441A800F238522D200BA181360C4
:104BC000654B8622D2009446BC44634400221A807E
:104BD000624B8622D2009446BC44634400221A7081
:104BE00000235F4ABA1813605A4B8622D2009446BB
:104BF000BC4463441A88BB6811001800594B98479D
:104C00000300594ABA181360554BFB181B68002B58
:104C100022D1564B1B685B699AB28523DB00FB18D7
:104C20001B689BB2D31A9CB21623FA18494B8621F3
:104C3000C9008C46BC4463441988B8682023FB181B
:104C4000019388239B00FB1800932300484CA04746
:104C50000300434ABA181360414BFB181B68002B32
:104C60006ED13D4B8622D2009446BC4463441A88E0
:104C7000404BFB1837498620C0008446BC44614441
:104C800009888A1A1A80344B8622D2009446BC4482
:104C900063441B881A00BB689A18364BFB181C88A3
:104CA000314BFB181968F8681823FB1802931C2372
:104CB000FB18019388239B00FB18009323002E4CC4
:104CC000A0470300264ABA181360254BFB181B683F
:104CD000002B0DD1FB691900BB692022BA1888206E
:104CE00080003818254CA04703001D4ABA181360ED
:104CF0001B4BFB181B68002B0BD1B9691523FA1845
:104D00002023FB1818001E4B98470300144ABA18BA
:104D10001360124B8622D2009446BC4463441B7835
:104D2000002B0DD00D4B8622D2009446BC44634428
:104D30001B781A008023DB011343094ABA18136059
:104D4000074BFB181B681800BD460E4B9D4490BDD9
:104D5000BCFBFFFFD6FBFFFFE6FBFFFFE5FBFFFF12
:104D60002C040000A15F00002404000014040020B3
:104D7000C543000022040000C96800008938000013
:104D8000B56000003404000090B5354CA54400AF78
:104D9000786000233B610023FB60324B8322D2000A
:104DA0009446BC44634400221A7000232E4ABA1869
:104DB00013602D4BFB181B68002B0DD10C23FB1827
:104DC0001022BA188521890079187868274CA047E5
:104DD0000300254ABA181360234BFB181B68002BED
:104DE0000DD13B691900FB681422BA188520800098
:104DF00038181F4CA04703001B4ABA1813601A4BFF
:104E0000FB181B68002B0BD1F9680B23FA1814232D
:104E1000FB181800174B98470300134ABA18136081
:104E2000104B8322D2009446BC4463441B78002B71
:104E30000DD00C4B8322D2009446BC4463441B78B3
:104E40001A008023DB011343074ABA181360064B8C
:104E5000FB181B681800BD46074B9D4490BDC0461B
:104E6000E4FBFFFFF3FBFFFF14040000416A0000B6
:104E700089380000556500001C04000090B56C4C9A
:104E8000A54404AFF860B9606A4B8621C9008C461E
:104E9000BC4463441A800F238522D200BA181360E1
:104EA000654B8622D2009446BC44634400221A809B
:104EB000624B8622D2009446BC44634400221A709E
:104EC00000235F4ABA1813605A4B8622D2009446D8
:104ED000BC4463441A88BB6811001800594B9847BA
:104EE0000300594ABA181360554BFB181B68002B76
:104EF00022D1564B1B685B699AB28523DB00FB18F5
:104F00001B689BB2D31A9CB21623FA18494B862110
:104F1000C9008C46BC4463441988B8682023FB1838
:104F2000019388239B00FB1800932300484CA04763
:104F30000300434ABA181360414BFB181B68002B4F
:104F40006ED13D4B8622D2009446BC4463441A88FD
:104F5000404BFB1837498620C0008446BC4461445E
:104F600009888A1A1A80344B8622D2009446BC449F
:104F700063441B881A00BB689A18364BFB181C88C0
:104F8000314BFB181968F8681823FB1802931C238F
:104F9000FB18019388239B00FB18009323002E4CE1
:104FA000A0470300264ABA181360254BFB181B685C
:104FB000002B0DD1FB691900BB692022BA1888208B
:104FC00080003818254CA04703001D4ABA1813600A
:104FD0001B4BFB181B68002B0BD1B9691523FA1862
:104FE0002023FB1818001E4B98470300144ABA18D8
:104FF0001360124B8622D2009446BC4463441B7853
:10500000002B0DD00D4B8622D2009446BC44634445
:105010001B781A008023DB011343094ABA18136076
:10502000074BFB181B681800BD460E4B9D4490BDF6
:10503000BCFBFFFFD6FBFFFFE6FBFFFFE5FBFFFF2F
:105040002C040000A15F00002404000014040020D0
:10505000C543000022040000856900008938000073
:10506000B56000003404000090B5454CA54400AF85
:105070000200444B8321C9008C46BC4463441A702F
:1050800000233B610023FB603F4B8322D200944608
:10509000BC44634400221A703C4B8322D2009446E5
:1050A000BC44634400221A700C23FC181023FA1825
:1050B00085239B00F918334B8320C0008446BC44F1
:1050C000634418782300324CA0470300314ABA18D1
:1050D0001360304BFB181B68002B0DD13B69190086
:1050E000FB681422BA188520800038182A4CA04783
:1050F0000300284ABA181360264BFB181B68002BC4
:105100000CD1F9680A23FB180B22BA18142038189E
:10511000224CA04703001F4ABA1813601B4B83227E
:10512000D2009446BC4463441B78002B0DD0174B2F
:105130008322D2009446BC4463441B781A00802327
:10514000DB011343134ABA181360124BFB181B6898
:10515000002B0CD10C4B8322D2009446BC446344F8
:105160001B78002B03D108230A4ABA181360094B95
:10517000FB181B681800BD46094B9D4490BDC046F6
:10518000E4FBFFFFEFFBFFFFF3FBFFFFF2FBFFFF83
:10519000996A00001404000089380000C16500000D
:1051A0001C04000090B5614CA54402AFB9607A6060
:1051B0005F4B8522D2009446BC446344021C1A70A3
:1051C00000233B620023FB615A4B8522D2009446A8
:1051D000BC44634400221A70BB68DAB2564B852186
:1051E000C9008C46BC4463441A70BB681B0ADAB21F
:1051F000514B8521C9008C46BC4463445A70BB683E
:105200001B0CDAB24C4B8521C9008C46BC4463446C
:105210009A70BB681B0EDAB2474B8521C9008C46D9
:10522000BC446344DA707B68DAB2434B8521C90021
:105230008C46BC4463441A717B681B0ADAB23E4B4D
:105240008521C9008C46BC4463445A717B681B0CA1
:10525000DAB2394B8521C9008C46BC4463449A714B
:105260007B681B0EDAB2344B8521C9008C46BC44E6
:105270006344DA712023FC1889239B00FA18102359
:10528000F9182B4B8520C0008446BC446344187831
:105290001C23FB1800932300284CA0470300284A36
:1052A000BA181360264BFB181B68002B0DD13B6A04
:1052B0001900FB692422BA18892080003818214C73
:1052C000A04703001E4ABA1813601D4BFB181B6849
:1052D000002B0BD1F9691B23FA182423FB181800A3
:1052E000194B98470300164ABA181360114B8522D0
:1052F000D2009446BC4463441B78002B0DD00D4B68
:105300008522D2009446BC4463441B781A00802353
:10531000DB0113430A4ABA181360094BFB181B68D8
:105320001800BD46094B9D4490BDC046CCFBFFFF15
:10533000E7FBFFFFF3FBFFFFE8FBFFFFF16A000065
:105340002404000089380000B56000002C0400002F
:1053500090B5394CA54402AF02003960374B832128
:10536000C9008C46BC4463441A8000233B6100237F
:10537000FB60334B8322D2009446BC44634400223A
:105380001A701023FC1885239B00FA182B4B8321DD
:10539000C9008C46BC446344198838680C23FB1848
:1053A00000932300274CA0470300274ABA18136034
:1053B000254BFB181B68002B0DD13B691900FB68BE
:1053C0001422BA18852080003818204CA04703000A
:1053D0001D4ABA1813601C4BFB181B68002B0BD11D
:1053E000F9680B23FA181423FB181800184B984778
:1053F0000300154ABA181360114B8322D200944659
:10540000BC4463441B78002B0DD00D4B8322D2008B
:105410009446BC4463441B781A008023DB01134389
:10542000094ABA181360084BFB181B681800BD46E0
:10543000084B9D4490BDC046DCFBFFFFEEFBFFFF29
:10544000F3FBFFFF816B00001404000089380000AB
:10545000B56000001C04000090B57E4CA54404AF6C
:10546000B9607A603B607C4BC82292009446BC4491
:105470006344021C1A701623FC181923FA18796861
:10548000B8681523FB1802931A23FB1801931C23F9
:10549000FB1800932300714CA0470300C722920021
:1054A000BA181360C7239B00FB181B68002B00D0A1
:1054B000ABE0694BC82292009446BC4463441B781D
:1054C000012B04D0022B3ED0002B18D09DE0644B62
:1054D000C82292009446BC4463441A78614BC821A8
:1054E00089008C46BC4463441B88190010005E4B45
:1054F00098470300C7229200BA18136085E0584B02
:10550000C82292009446BC4463441878554BC82284
:1055100092009446BC4463441988544BC8229200BC
:105520009446BC4463441B881C22BA18504CA047C4
:105530000300C7229200BA181360C7239B00FB1810
:105540001B68002B60D14B4BC82292009446BC4490
:1055500063441A78424BC82189008C46BC4463449A
:105560001B78D318DAB23F4BC82189008C46BC4463
:1055700063441B88DBB2D318DAB23A4BC8218900E6
:105580008C46BC4463441B881B0A9BB2DBB2D31815
:10559000DAB2364BC82189008C46BC4463441B8870
:1055A000DBB2D318DAB2314BC82189008C46BC4437
:1055B00063441B881B0A9BB2DBB2D318DAB22D4BB3
:1055C000C82189008C46BC4463441A70244BC8220D
:1055D00092009446BC4463441878224BC82292003F
:1055E0009446BC4463441988224BC82292009446D6
:1055F000BC4463441B781A001F4B98470300C72222
:105600009200BA18136000E0C046C7239B00FB1845
:105610001B68002B13D13B68002B10D0104BC82205
:1056200092009446BC4463441A780E4BC82189000A
:105630008C46BC44634419883B6810009847C723D4
:105640009B00FB181B681800BD46C9239B009D44A6
:1056500090BDC046CCFCFFFFEFFCFFFF6573000070
:10566000F9FCFFFFF6FCFFFF35470000FAFCFFFFE7
:10567000E9440000F5FCFFFFAD48000090B5404C48
:10568000A54402AFB9607A603B603E4BC8229200ED
:105690009446BC446344021C1A701C23FC18142357
:1056A000FA187968B8681323FB1801931A23FB18BA
:1056B00000932300344CA0470300C7229200BA187D
:1056C0001360C7239B00FB181B68002B3DD12D4B9B
:1056D000C82292009446BC4463441B78012B04D03A
:1056E000022B1FD0002B0AD02FE07B691800274B1C
:1056F00098470300C7229200BA18136025E0786922
:10570000234BC82292009446BC4463441A881C234D
:10571000FB1819001F4B98470300C7229200BA18C4
:10572000136012E078691A4BC82292009446BC4478
:1057300063441A881C23FB181900174B9847030071
:10574000C7229200BA181360C046C7239B00FB18FB
:105750001B68002B09D13B68002B06D07B691B0C12
:105760009AB23B68110000209847C7239B00FB18A2
:105770001B681800BD46C9239B009D4490BDC046D0
:10578000D4FCFFFFEFFCFFFF0D750000894D00000A
:10579000FAFCFFFF9D4B00007D4E000090B52F4CA2
:1057A000A54400AF786039600523C6229200BA187C
:1057B0001360C4239B00FB18294A11681960928862
:1057C0009A800023C7229200BA1813607A68C62311
:1057D0009B00FB181B689A4231D3C6239B00FB1821
:1057E0001A68C4239B00F9183B6818001D4B9847A2
:1057F000031E24D17A68C6239B00FB181B68D01AAD
:105800003A68C6239B00FB181B68D1181023FB18AD
:105810000E22BA18144CA047144BC822920094468A
:10582000BC4463441B881022BA1811001800104BA6
:1058300098470300C7229200BA18136004E00123BE
:10584000C7229200BA181360C7239B00FB181B687D
:105850001800BD46C9239B009D4490BDDCFCFFFFA2
:10586000D03D01004F3D0100E96E0000EEFCFFFF5E
:105870005153000090B58DB002AFB9607A60190045
:105880000F23FB18021C1A700E23FB180A1C1A7037
:105890002323FB18FF221A700023FB610023BB6146
:1058A0001723FB1800221A701623FB1800221A7007
:1058B0002223FB1800221A70B8681723FC1818233B
:1058C000FA1879681623FB1800932300674CA04749
:1058D00003007B627B6A002B51D11623FB181B78D7
:1058E0001800634B9847B9691723FB181A781C23D3
:1058F000FC18F86BBB6B009323005E4CA0470300C1
:105900007B622223FB1801221A705B4B98470E23FF
:10591000FB180E22BA181278013A1A700E23FB18DF
:105920001B78012B05D90E23FB182322BA181278F5
:105930001A707B6A002B22D10E23FA182323FB183E
:1059400012781B789A421AD01423FA181523F918E2
:105950000E23FB181B781800484B984703007B6206
:105960007B6A002B0BD10F23FB181B78022B06D070
:105970001423FB181B78002B01D00C237B623E4BB9
:10598000984724E03E4B1B78002B02D0FF237B621C
:1059900020E07A680823FB1811001800394B98475B
:1059A00003007B627B6A002B0BD1B9683C6C7A6880
:1059B0000F23FB1818782300334CA04703007B62A9
:1059C00005E07B6A022B02D100237B6202E07B6A46
:1059D000002BD7D07B6A002B42D10F23FB181B78FA
:1059E000002B2DD12323FA180E23FB1812781B78D5
:1059F0009A4225D01423FA181523F9180E23FB1800
:105A00001B7818001D4B984703007B627B6A002BB4
:105A10000FD11523FB181B78002B07D10E23FB1881
:105A20001B781800194B9847030000E008237B629D
:105A300015E07B6A164A934211D100237B620EE087
:105A40000F23FB181B78002B04D00F23FB181B78A7
:105A5000022B05D10F4B984703007B6200E0C04644
:105A60007B6A1800BD460BB090BDC0468171000036
:105A70000D600000493B000085080000394000002F
:105A80008C1A0020916F000059540000A9410000B9
:105A900005400000894A000090B591B004AFB9609C
:105AA0007A603B600F23FB18021C1A7000237B6294
:105AB00000233B621F23FB1800221A701E23FB18D1
:105AC00000221A701D23FB1800221A702B23FB18CA
:105AD00000221A7001235B42BB6100237B6100231B
